{
    "contractName": "AccessControlledOffchainAggregator",
    "abi": [
        {
            "inputs": [
                {
                    "internalType": "uint32",
                    "name": "_maximumGasPrice",
                    "type": "uint32"
                },
                {
                    "internalType": "uint32",
                    "name": "_reasonableGasPrice",
                    "type": "uint32"
                },
                {
                    "internalType": "uint32",
                    "name": "_microLinkPerEth",
                    "type": "uint32"
                },
                {
                    "internalType": "uint32",
                    "name": "_linkGweiPerObservation",
                    "type": "uint32"
                },
                {
                    "internalType": "uint32",
                    "name": "_linkGweiPerTransmission",
                    "type": "uint32"
                },
                {
                    "internalType": "contract LinkTokenInterface",
                    "name": "_link",
                    "type": "address"
                },
                {
                    "internalType": "int192",
                    "name": "_minAnswer",
                    "type": "int192"
                },
                {
                    "internalType": "int192",
                    "name": "_maxAnswer",
                    "type": "int192"
                },
                {
                    "internalType": "contract AccessControllerInterface",
                    "name": "_billingAccessController",
                    "type": "address"
                },
                {
                    "internalType": "contract AccessControllerInterface",
                    "name": "_requesterAccessController",
                    "type": "address"
                },
                {
                    "internalType": "uint8",
                    "name": "_decimals",
                    "type": "uint8"
                },
                {
                    "internalType": "string",
                    "name": "description",
                    "type": "string"
                }
            ],
            "stateMutability": "nonpayable",
            "type": "constructor"
        },
        {
            "anonymous": false,
            "inputs": [
                {
                    "indexed": false,
                    "internalType": "address",
                    "name": "user",
                    "type": "address"
                }
            ],
            "name": "AddedAccess",
            "type": "event"
        },
        {
            "anonymous": false,
            "inputs": [
                {
                    "indexed": true,
                    "internalType": "int256",
                    "name": "current",
                    "type": "int256"
                },
                {
                    "indexed": true,
                    "internalType": "uint256",
                    "name": "roundId",
                    "type": "uint256"
                },
                {
                    "indexed": false,
                    "internalType": "uint256",
                    "name": "updatedAt",
                    "type": "uint256"
                }
            ],
            "name": "AnswerUpdated",
            "type": "event"
        },
        {
            "anonymous": false,
            "inputs": [
                {
                    "indexed": false,
                    "internalType": "contract AccessControllerInterface",
                    "name": "old",
                    "type": "address"
                },
                {
                    "indexed": false,
                    "internalType": "contract AccessControllerInterface",
                    "name": "current",
                    "type": "address"
                }
            ],
            "name": "BillingAccessControllerSet",
            "type": "event"
        },
        {
            "anonymous": false,
            "inputs": [
                {
                    "indexed": false,
                    "internalType": "uint32",
                    "name": "maximumGasPrice",
                    "type": "uint32"
                },
                {
                    "indexed": false,
                    "internalType": "uint32",
                    "name": "reasonableGasPrice",
                    "type": "uint32"
                },
                {
                    "indexed": false,
                    "internalType": "uint32",
                    "name": "microLinkPerEth",
                    "type": "uint32"
                },
                {
                    "indexed": false,
                    "internalType": "uint32",
                    "name": "linkGweiPerObservation",
                    "type": "uint32"
                },
                {
                    "indexed": false,
                    "internalType": "uint32",
                    "name": "linkGweiPerTransmission",
                    "type": "uint32"
                }
            ],
            "name": "BillingSet",
            "type": "event"
        },
        {
            "anonymous": false,
            "inputs": [],
            "name": "CheckAccessDisabled",
            "type": "event"
        },
        {
            "anonymous": false,
            "inputs": [],
            "name": "CheckAccessEnabled",
            "type": "event"
        },
        {
            "anonymous": false,
            "inputs": [
                {
                    "indexed": false,
                    "internalType": "uint32",
                    "name": "previousConfigBlockNumber",
                    "type": "uint32"
                },
                {
                    "indexed": false,
                    "internalType": "uint64",
                    "name": "configCount",
                    "type": "uint64"
                },
                {
                    "indexed": false,
                    "internalType": "address[]",
                    "name": "signers",
                    "type": "address[]"
                },
                {
                    "indexed": false,
                    "internalType": "address[]",
                    "name": "transmitters",
                    "type": "address[]"
                },
                {
                    "indexed": false,
                    "internalType": "uint8",
                    "name": "threshold",
                    "type": "uint8"
                },
                {
                    "indexed": false,
                    "internalType": "uint64",
                    "name": "encodedConfigVersion",
                    "type": "uint64"
                },
                {
                    "indexed": false,
                    "internalType": "bytes",
                    "name": "encoded",
                    "type": "bytes"
                }
            ],
            "name": "ConfigSet",
            "type": "event"
        },
        {
            "anonymous": false,
            "inputs": [
                {
                    "indexed": true,
                    "internalType": "contract LinkTokenInterface",
                    "name": "_oldLinkToken",
                    "type": "address"
                },
                {
                    "indexed": true,
                    "internalType": "contract LinkTokenInterface",
                    "name": "_newLinkToken",
                    "type": "address"
                }
            ],
            "name": "LinkTokenSet",
            "type": "event"
        },
        {
            "anonymous": false,
            "inputs": [
                {
                    "indexed": true,
                    "internalType": "uint256",
                    "name": "roundId",
                    "type": "uint256"
                },
                {
                    "indexed": true,
                    "internalType": "address",
                    "name": "startedBy",
                    "type": "address"
                },
                {
                    "indexed": false,
                    "internalType": "uint256",
                    "name": "startedAt",
                    "type": "uint256"
                }
            ],
            "name": "NewRound",
            "type": "event"
        },
        {
            "anonymous": false,
            "inputs": [
                {
                    "indexed": true,
                    "internalType": "uint32",
                    "name": "aggregatorRoundId",
                    "type": "uint32"
                },
                {
                    "indexed": false,
                    "internalType": "int192",
                    "name": "answer",
                    "type": "int192"
                },
                {
                    "indexed": false,
                    "internalType": "address",
                    "name": "transmitter",
                    "type": "address"
                },
                {
                    "indexed": false,
                    "internalType": "int192[]",
                    "name": "observations",
                    "type": "int192[]"
                },
                {
                    "indexed": false,
                    "internalType": "bytes",
                    "name": "observers",
                    "type": "bytes"
                },
                {
                    "indexed": false,
                    "internalType": "bytes32",
                    "name": "rawReportContext",
                    "type": "bytes32"
                }
            ],
            "name": "NewTransmission",
            "type": "event"
        },
        {
            "anonymous": false,
            "inputs": [
                {
                    "indexed": true,
                    "internalType": "address",
                    "name": "transmitter",
                    "type": "address"
                },
                {
                    "indexed": true,
                    "internalType": "address",
                    "name": "payee",
                    "type": "address"
                },
                {
                    "indexed": false,
                    "internalType": "uint256",
                    "name": "amount",
                    "type": "uint256"
                },
                {
                    "indexed": true,
                    "internalType": "contract LinkTokenInterface",
                    "name": "linkToken",
                    "type": "address"
                }
            ],
            "name": "OraclePaid",
            "type": "event"
        },
        {
            "anonymous": false,
            "inputs": [
                {
                    "indexed": true,
                    "internalType": "address",
                    "name": "from",
                    "type": "address"
                },
                {
                    "indexed": true,
                    "internalType": "address",
                    "name": "to",
                    "type": "address"
                }
            ],
            "name": "OwnershipTransferRequested",
            "type": "event"
        },
        {
            "anonymous": false,
            "inputs": [
                {
                    "indexed": true,
                    "internalType": "address",
                    "name": "from",
                    "type": "address"
                },
                {
                    "indexed": true,
                    "internalType": "address",
                    "name": "to",
                    "type": "address"
                }
            ],
            "name": "OwnershipTransferred",
            "type": "event"
        },
        {
            "anonymous": false,
            "inputs": [
                {
                    "indexed": true,
                    "internalType": "address",
                    "name": "transmitter",
                    "type": "address"
                },
                {
                    "indexed": true,
                    "internalType": "address",
                    "name": "current",
                    "type": "address"
                },
                {
                    "indexed": true,
                    "internalType": "address",
                    "name": "proposed",
                    "type": "address"
                }
            ],
            "name": "PayeeshipTransferRequested",
            "type": "event"
        },
        {
            "anonymous": false,
            "inputs": [
                {
                    "indexed": true,
                    "internalType": "address",
                    "name": "transmitter",
                    "type": "address"
                },
                {
                    "indexed": true,
                    "internalType": "address",
                    "name": "previous",
                    "type": "address"
                },
                {
                    "indexed": true,
                    "internalType": "address",
                    "name": "current",
                    "type": "address"
                }
            ],
            "name": "PayeeshipTransferred",
            "type": "event"
        },
        {
            "anonymous": false,
            "inputs": [
                {
                    "indexed": false,
                    "internalType": "address",
                    "name": "user",
                    "type": "address"
                }
            ],
            "name": "RemovedAccess",
            "type": "event"
        },
        {
            "anonymous": false,
            "inputs": [
                {
                    "indexed": false,
                    "internalType": "contract AccessControllerInterface",
                    "name": "old",
                    "type": "address"
                },
                {
                    "indexed": false,
                    "internalType": "contract AccessControllerInterface",
                    "name": "current",
                    "type": "address"
                }
            ],
            "name": "RequesterAccessControllerSet",
            "type": "event"
        },
        {
            "anonymous": false,
            "inputs": [
                {
                    "indexed": true,
                    "internalType": "address",
                    "name": "requester",
                    "type": "address"
                },
                {
                    "indexed": false,
                    "internalType": "bytes16",
                    "name": "configDigest",
                    "type": "bytes16"
                },
                {
                    "indexed": false,
                    "internalType": "uint32",
                    "name": "epoch",
                    "type": "uint32"
                },
                {
                    "indexed": false,
                    "internalType": "uint8",
                    "name": "round",
                    "type": "uint8"
                }
            ],
            "name": "RoundRequested",
            "type": "event"
        },
        {
            "anonymous": false,
            "inputs": [
                {
                    "indexed": true,
                    "internalType": "contract AggregatorValidatorInterface",
                    "name": "previousValidator",
                    "type": "address"
                },
                {
                    "indexed": false,
                    "internalType": "uint32",
                    "name": "previousGasLimit",
                    "type": "uint32"
                },
                {
                    "indexed": true,
                    "internalType": "contract AggregatorValidatorInterface",
                    "name": "currentValidator",
                    "type": "address"
                },
                {
                    "indexed": false,
                    "internalType": "uint32",
                    "name": "currentGasLimit",
                    "type": "uint32"
                }
            ],
            "name": "ValidatorConfigSet",
            "type": "event"
        },
        {
            "inputs": [],
            "name": "acceptOwnership",
            "outputs": [],
            "stateMutability": "nonpayable",
            "type": "function"
        },
        {
            "inputs": [
                {
                    "internalType": "address",
                    "name": "_transmitter",
                    "type": "address"
                }
            ],
            "name": "acceptPayeeship",
            "outputs": [],
            "stateMutability": "nonpayable",
            "type": "function"
        },
        {
            "inputs": [
                {
                    "internalType": "address",
                    "name": "_user",
                    "type": "address"
                }
            ],
            "name": "addAccess",
            "outputs": [],
            "stateMutability": "nonpayable",
            "type": "function"
        },
        {
            "inputs": [],
            "name": "billingAccessController",
            "outputs": [
                {
                    "internalType": "contract AccessControllerInterface",
                    "name": "",
                    "type": "address"
                }
            ],
            "stateMutability": "view",
            "type": "function"
        },
        {
            "inputs": [],
            "name": "checkEnabled",
            "outputs": [
                {
                    "internalType": "bool",
                    "name": "",
                    "type": "bool"
                }
            ],
            "stateMutability": "view",
            "type": "function"
        },
        {
            "inputs": [],
            "name": "decimals",
            "outputs": [
                {
                    "internalType": "uint8",
                    "name": "",
                    "type": "uint8"
                }
            ],
            "stateMutability": "view",
            "type": "function"
        },
        {
            "inputs": [],
            "name": "description",
            "outputs": [
                {
                    "internalType": "string",
                    "name": "",
                    "type": "string"
                }
            ],
            "stateMutability": "view",
            "type": "function"
        },
        {
            "inputs": [],
            "name": "disableAccessCheck",
            "outputs": [],
            "stateMutability": "nonpayable",
            "type": "function"
        },
        {
            "inputs": [],
            "name": "enableAccessCheck",
            "outputs": [],
            "stateMutability": "nonpayable",
            "type": "function"
        },
        {
            "inputs": [
                {
                    "internalType": "uint256",
                    "name": "_roundId",
                    "type": "uint256"
                }
            ],
            "name": "getAnswer",
            "outputs": [
                {
                    "internalType": "int256",
                    "name": "",
                    "type": "int256"
                }
            ],
            "stateMutability": "view",
            "type": "function"
        },
        {
            "inputs": [],
            "name": "getBilling",
            "outputs": [
                {
                    "internalType": "uint32",
                    "name": "maximumGasPrice",
                    "type": "uint32"
                },
                {
                    "internalType": "uint32",
                    "name": "reasonableGasPrice",
                    "type": "uint32"
                },
                {
                    "internalType": "uint32",
                    "name": "microLinkPerEth",
                    "type": "uint32"
                },
                {
                    "internalType": "uint32",
                    "name": "linkGweiPerObservation",
                    "type": "uint32"
                },
                {
                    "internalType": "uint32",
                    "name": "linkGweiPerTransmission",
                    "type": "uint32"
                }
            ],
            "stateMutability": "view",
            "type": "function"
        },
        {
            "inputs": [],
            "name": "getLinkToken",
            "outputs": [
                {
                    "internalType": "contract LinkTokenInterface",
                    "name": "linkToken",
                    "type": "address"
                }
            ],
            "stateMutability": "view",
            "type": "function"
        },
        {
            "inputs": [
                {
                    "internalType": "uint80",
                    "name": "_roundId",
                    "type": "uint80"
                }
            ],
            "name": "getRoundData",
            "outputs": [
                {
                    "internalType": "uint80",
                    "name": "roundId",
                    "type": "uint80"
                },
                {
                    "internalType": "int256",
                    "name": "answer",
                    "type": "int256"
                },
                {
                    "internalType": "uint256",
                    "name": "startedAt",
                    "type": "uint256"
                },
                {
                    "internalType": "uint256",
                    "name": "updatedAt",
                    "type": "uint256"
                },
                {
                    "internalType": "uint80",
                    "name": "answeredInRound",
                    "type": "uint80"
                }
            ],
            "stateMutability": "view",
            "type": "function"
        },
        {
            "inputs": [
                {
                    "internalType": "uint256",
                    "name": "_roundId",
                    "type": "uint256"
                }
            ],
            "name": "getTimestamp",
            "outputs": [
                {
                    "internalType": "uint256",
                    "name": "",
                    "type": "uint256"
                }
            ],
            "stateMutability": "view",
            "type": "function"
        },
        {
            "inputs": [
                {
                    "internalType": "address",
                    "name": "_user",
                    "type": "address"
                },
                {
                    "internalType": "bytes",
                    "name": "_calldata",
                    "type": "bytes"
                }
            ],
            "name": "hasAccess",
            "outputs": [
                {
                    "internalType": "bool",
                    "name": "",
                    "type": "bool"
                }
            ],
            "stateMutability": "view",
            "type": "function"
        },
        {
            "inputs": [],
            "name": "latestAnswer",
            "outputs": [
                {
                    "internalType": "int256",
                    "name": "",
                    "type": "int256"
                }
            ],
            "stateMutability": "view",
            "type": "function"
        },
        {
            "inputs": [],
            "name": "latestConfigDetails",
            "outputs": [
                {
                    "internalType": "uint32",
                    "name": "configCount",
                    "type": "uint32"
                },
                {
                    "internalType": "uint32",
                    "name": "blockNumber",
                    "type": "uint32"
                },
                {
                    "internalType": "bytes16",
                    "name": "configDigest",
                    "type": "bytes16"
                }
            ],
            "stateMutability": "view",
            "type": "function"
        },
        {
            "inputs": [],
            "name": "latestRound",
            "outputs": [
                {
                    "internalType": "uint256",
                    "name": "",
                    "type": "uint256"
                }
            ],
            "stateMutability": "view",
            "type": "function"
        },
        {
            "inputs": [],
            "name": "latestRoundData",
            "outputs": [
                {
                    "internalType": "uint80",
                    "name": "roundId",
                    "type": "uint80"
                },
                {
                    "internalType": "int256",
                    "name": "answer",
                    "type": "int256"
                },
                {
                    "internalType": "uint256",
                    "name": "startedAt",
                    "type": "uint256"
                },
                {
                    "internalType": "uint256",
                    "name": "updatedAt",
                    "type": "uint256"
                },
                {
                    "internalType": "uint80",
                    "name": "answeredInRound",
                    "type": "uint80"
                }
            ],
            "stateMutability": "view",
            "type": "function"
        },
        {
            "inputs": [],
            "name": "latestTimestamp",
            "outputs": [
                {
                    "internalType": "uint256",
                    "name": "",
                    "type": "uint256"
                }
            ],
            "stateMutability": "view",
            "type": "function"
        },
        {
            "inputs": [],
            "name": "latestTransmissionDetails",
            "outputs": [
                {
                    "internalType": "bytes16",
                    "name": "configDigest",
                    "type": "bytes16"
                },
                {
                    "internalType": "uint32",
                    "name": "epoch",
                    "type": "uint32"
                },
                {
                    "internalType": "uint8",
                    "name": "round",
                    "type": "uint8"
                },
                {
                    "internalType": "int192",
                    "name": "latestAnswer",
                    "type": "int192"
                },
                {
                    "internalType": "uint64",
                    "name": "latestTimestamp",
                    "type": "uint64"
                }
            ],
            "stateMutability": "view",
            "type": "function"
        },
        {
            "inputs": [],
            "name": "linkAvailableForPayment",
            "outputs": [
                {
                    "internalType": "int256",
                    "name": "availableBalance",
                    "type": "int256"
                }
            ],
            "stateMutability": "view",
            "type": "function"
        },
        {
            "inputs": [],
            "name": "maxAnswer",
            "outputs": [
                {
                    "internalType": "int192",
                    "name": "",
                    "type": "int192"
                }
            ],
            "stateMutability": "view",
            "type": "function"
        },
        {
            "inputs": [],
            "name": "minAnswer",
            "outputs": [
                {
                    "internalType": "int192",
                    "name": "",
                    "type": "int192"
                }
            ],
            "stateMutability": "view",
            "type": "function"
        },
        {
            "inputs": [
                {
                    "internalType": "address",
                    "name": "_signerOrTransmitter",
                    "type": "address"
                }
            ],
            "name": "oracleObservationCount",
            "outputs": [
                {
                    "internalType": "uint16",
                    "name": "",
                    "type": "uint16"
                }
            ],
            "stateMutability": "view",
            "type": "function"
        },
        {
            "inputs": [
                {
                    "internalType": "address",
                    "name": "_transmitter",
                    "type": "address"
                }
            ],
            "name": "owedPayment",
            "outputs": [
                {
                    "internalType": "uint256",
                    "name": "",
                    "type": "uint256"
                }
            ],
            "stateMutability": "view",
            "type": "function"
        },
        {
            "inputs": [],
            "name": "owner",
            "outputs": [
                {
                    "internalType": "address payable",
                    "name": "",
                    "type": "address"
                }
            ],
            "stateMutability": "view",
            "type": "function"
        },
        {
            "inputs": [
                {
                    "internalType": "address",
                    "name": "_user",
                    "type": "address"
                }
            ],
            "name": "removeAccess",
            "outputs": [],
            "stateMutability": "nonpayable",
            "type": "function"
        },
        {
            "inputs": [],
            "name": "requestNewRound",
            "outputs": [
                {
                    "internalType": "uint80",
                    "name": "",
                    "type": "uint80"
                }
            ],
            "stateMutability": "nonpayable",
            "type": "function"
        },
        {
            "inputs": [],
            "name": "requesterAccessController",
            "outputs": [
                {
                    "internalType": "contract AccessControllerInterface",
                    "name": "",
                    "type": "address"
                }
            ],
            "stateMutability": "view",
            "type": "function"
        },
        {
            "inputs": [
                {
                    "internalType": "uint32",
                    "name": "_maximumGasPrice",
                    "type": "uint32"
                },
                {
                    "internalType": "uint32",
                    "name": "_reasonableGasPrice",
                    "type": "uint32"
                },
                {
                    "internalType": "uint32",
                    "name": "_microLinkPerEth",
                    "type": "uint32"
                },
                {
                    "internalType": "uint32",
                    "name": "_linkGweiPerObservation",
                    "type": "uint32"
                },
                {
                    "internalType": "uint32",
                    "name": "_linkGweiPerTransmission",
                    "type": "uint32"
                }
            ],
            "name": "setBilling",
            "outputs": [],
            "stateMutability": "nonpayable",
            "type": "function"
        },
        {
            "inputs": [
                {
                    "internalType": "contract AccessControllerInterface",
                    "name": "_billingAccessController",
                    "type": "address"
                }
            ],
            "name": "setBillingAccessController",
            "outputs": [],
            "stateMutability": "nonpayable",
            "type": "function"
        },
        {
            "inputs": [
                {
                    "internalType": "address[]",
                    "name": "_signers",
                    "type": "address[]"
                },
                {
                    "internalType": "address[]",
                    "name": "_transmitters",
                    "type": "address[]"
                },
                {
                    "internalType": "uint8",
                    "name": "_threshold",
                    "type": "uint8"
                },
                {
                    "internalType": "uint64",
                    "name": "_encodedConfigVersion",
                    "type": "uint64"
                },
                {
                    "internalType": "bytes",
                    "name": "_encoded",
                    "type": "bytes"
                }
            ],
            "name": "setConfig",
            "outputs": [],
            "stateMutability": "nonpayable",
            "type": "function"
        },
        {
            "inputs": [
                {
                    "internalType": "contract LinkTokenInterface",
                    "name": "_linkToken",
                    "type": "address"
                },
                {
                    "internalType": "address",
                    "name": "_recipient",
                    "type": "address"
                }
            ],
            "name": "setLinkToken",
            "outputs": [],
            "stateMutability": "nonpayable",
            "type": "function"
        },
        {
            "inputs": [
                {
                    "internalType": "address[]",
                    "name": "_transmitters",
                    "type": "address[]"
                },
                {
                    "internalType": "address[]",
                    "name": "_payees",
                    "type": "address[]"
                }
            ],
            "name": "setPayees",
            "outputs": [],
            "stateMutability": "nonpayable",
            "type": "function"
        },
        {
            "inputs": [
                {
                    "internalType": "contract AccessControllerInterface",
                    "name": "_requesterAccessController",
                    "type": "address"
                }
            ],
            "name": "setRequesterAccessController",
            "outputs": [],
            "stateMutability": "nonpayable",
            "type": "function"
        },
        {
            "inputs": [
                {
                    "internalType": "contract AggregatorValidatorInterface",
                    "name": "_newValidator",
                    "type": "address"
                },
                {
                    "internalType": "uint32",
                    "name": "_newGasLimit",
                    "type": "uint32"
                }
            ],
            "name": "setValidatorConfig",
            "outputs": [],
            "stateMutability": "nonpayable",
            "type": "function"
        },
        {
            "inputs": [
                {
                    "internalType": "address",
                    "name": "_to",
                    "type": "address"
                }
            ],
            "name": "transferOwnership",
            "outputs": [],
            "stateMutability": "nonpayable",
            "type": "function"
        },
        {
            "inputs": [
                {
                    "internalType": "address",
                    "name": "_transmitter",
                    "type": "address"
                },
                {
                    "internalType": "address",
                    "name": "_proposed",
                    "type": "address"
                }
            ],
            "name": "transferPayeeship",
            "outputs": [],
            "stateMutability": "nonpayable",
            "type": "function"
        },
        {
            "inputs": [
                {
                    "internalType": "bytes",
                    "name": "_report",
                    "type": "bytes"
                },
                {
                    "internalType": "bytes32[]",
                    "name": "_rs",
                    "type": "bytes32[]"
                },
                {
                    "internalType": "bytes32[]",
                    "name": "_ss",
                    "type": "bytes32[]"
                },
                {
                    "internalType": "bytes32",
                    "name": "_rawVs",
                    "type": "bytes32"
                }
            ],
            "name": "transmit",
            "outputs": [],
            "stateMutability": "nonpayable",
            "type": "function"
        },
        {
            "inputs": [],
            "name": "transmitters",
            "outputs": [
                {
                    "internalType": "address[]",
                    "name": "",
                    "type": "address[]"
                }
            ],
            "stateMutability": "view",
            "type": "function"
        },
        {
            "inputs": [],
            "name": "typeAndVersion",
            "outputs": [
                {
                    "internalType": "string",
                    "name": "",
                    "type": "string"
                }
            ],
            "stateMutability": "pure",
            "type": "function"
        },
        {
            "inputs": [],
            "name": "validatorConfig",
            "outputs": [
                {
                    "internalType": "contract AggregatorValidatorInterface",
                    "name": "validator",
                    "type": "address"
                },
                {
                    "internalType": "uint32",
                    "name": "gasLimit",
                    "type": "uint32"
                }
            ],
            "stateMutability": "view",
            "type": "function"
        },
        {
            "inputs": [],
            "name": "version",
            "outputs": [
                {
                    "internalType": "uint256",
                    "name": "",
                    "type": "uint256"
                }
            ],
            "stateMutability": "view",
            "type": "function"
        },
        {
            "inputs": [
                {
                    "internalType": "address",
                    "name": "_recipient",
                    "type": "address"
                },
                {
                    "internalType": "uint256",
                    "name": "_amount",
                    "type": "uint256"
                }
            ],
            "name": "withdrawFunds",
            "outputs": [],
            "stateMutability": "nonpayable",
            "type": "function"
        },
        {
            "inputs": [
                {
                    "internalType": "address",
                    "name": "_transmitter",
                    "type": "address"
                }
            ],
            "name": "withdrawPayment",
            "outputs": [],
            "stateMutability": "nonpayable",
            "type": "function"
        }
    ],
    "bytecode": "60e06040523480156200001157600080fd5b50604051620059c2380380620059c283398181016040526101808110156200003857600080fd5b815160208301516040808501516060860151608087015160a088015160c089015160e08a01516101008b01516101208c01516101408d01516101608e0180519a519c9e9b9d999c989b979a969995989497939692959194939182019284640100000000821115620000a857600080fd5b908301906020820185811115620000be57600080fd5b8251640100000000811182820188101715620000d957600080fd5b82525081516020918201929091019080838360005b8381101562000108578181015183820152602001620000ee565b50505050905090810190601f168015620001365780820380516001836020036101000a031916815260200191505b506040525050600080546001600160a01b03191633179055508b8b8b8b8b8b8b8b8b8b8b8b8b8b8b8b8b8b89620001718787878787620002ef565b600380546001600160a01b0319166001600160a01b0384169081179091556040516000907f4966a50c93f855342ccf6c5c0d358b85b91335b2acedc7da0932f691f351711a908290a3620001c581620003e1565b620001cf62000678565b620001d962000678565b60005b601f8160ff16101562000229576001838260ff16601f8110620001fb57fe5b61ffff909216602092909202015260018260ff8316601f81106200021b57fe5b6020020152600101620001dc565b5062000239600583601f62000697565b5062000249600982601f62000734565b505050505060f887901b7fff000000000000000000000000000000000000000000000000000000000000001660c052505083516200029293506030925060208501915062000765565b506200029e836200045a565b620002ab60008062000532565b50505050601791820b820b604090811b60805290820b90910b901b60a05250506031805460ff1916600117905550620007fe9e505050505050505050505050505050565b6040805160a0808201835263ffffffff88811680845288821660208086018290528984168688018190528985166060808901829052958a1660809889018190526002805463ffffffff1916871763ffffffff60201b191664010000000087021763ffffffff60401b19166801000000000000000085021763ffffffff60601b19166c0100000000000000000000000084021763ffffffff60801b1916600160801b830217905589519586529285019390935283880152928201529283015291517fd0d9486a2c673e2a4b57fc82e4c8a556b3e2b82dd5db07e2c04a920ca0f469b6929181900390910190a15050505050565b6004546001600160a01b0390811690821681146200045657600480546001600160a01b0319166001600160a01b03848116918217909255604080519284168352602083019190915280517f793cb73064f3c8cde7e187ae515511e6e56d1ee89bf08b82fa60fb70f8d489129281900390910190a15b5050565b6000546001600160a01b03163314620004ba576040805162461bcd60e51b815260206004820152601660248201527f4f6e6c792063616c6c61626c65206279206f776e657200000000000000000000604482015290519081900360640190fd5b602f546001600160a01b0390811690821681146200045657602f80546001600160a01b0319166001600160a01b03848116918217909255604080519284168352602083019190915280517f27b89aede8b560578baaa25ee5ce3852c5eecad1e114b941bbd89e1eb4bae6349281900390910190a15050565b6000546001600160a01b0316331462000592576040805162461bcd60e51b815260206004820152601660248201527f4f6e6c792063616c6c61626c65206279206f776e657200000000000000000000604482015290519081900360640190fd5b60408051808201909152602e546001600160a01b03808216808452600160a01b90920463ffffffff1660208401528416141580620005e057508163ffffffff16816020015163ffffffff1614155b1562000673576040805180820182526001600160a01b0385811680835263ffffffff8681166020948501819052602e80546001600160a01b031916841763ffffffff60a01b1916600160a01b8302179055865187860151875193168352948201528451919493909216927fb04e3a37abe9c0fcdfebdeae019a8e2b12ddf53f5d55ffb0caccc1bedaca1541928290030190a35b505050565b604051806103e00160405280601f906020820280368337509192915050565b600283019183908215620007225791602002820160005b83821115620006f057835183826101000a81548161ffff021916908361ffff1602179055509260200192600201602081600101049283019260010302620006ae565b8015620007205782816101000a81549061ffff0219169055600201602081600101049283019260010302620006f0565b505b5062000730929150620007e7565b5090565b82601f810192821562000722579160200282015b828111156200072257825182559160200191906001019062000748565b828054600181600116156101000203166002900490600052602060002090601f0160209004810192826200079d576000855562000722565b82601f10620007b857805160ff191683800117855562000722565b828001600101855582156200072257918201828111156200072257825182559160200191906001019062000748565b5b80821115620007305760008155600101620007e8565b60805160401c60a05160401c60c05160f81c6151846200083e60003980610e9e525080611a715280613463525080610e19528061343652506151846000f3fe608060405234801561001057600080fd5b506004361061028a5760003560e01c80638e0566de1161015c578063c1075329116100ce578063e76d516811610087578063e76d516814610b7e578063eb45716314610b86578063eb5dcd6c14610bb8578063f2fde38b14610be6578063fbffd2c114610c0c578063feaf968c14610c325761028a565b8063c1075329146109a6578063c9807539146109d2578063d09dc33914610ae0578063dc7f012414610ae8578063e4902f8214610af0578063e5fe457714610b2d5761028a565b80639e3ceeab116101205780639e3ceeab146108b5578063a118f249146108db578063b121e14714610901578063b5ab58dc14610927578063b633620c14610944578063bd824706146109615761028a565b80638e0566de1461073157806398e5b12a14610761578063996e8298146107855780639a6fc8f51461078d5780639c849b30146107f75761028a565b80636b14daf81161020057806381411834116101b9578063814118341461064457806381ff70481461069c5780638205bf6a146106d55780638823da6c146106dd5780638ac28d5a146107035780638da5cb5b146107295761028a565b80636b14daf81461053857806370da2f671461060057806370efdf2d146106085780637284e4161461062c57806379ba5097146106345780638038e4a11461063c5761028a565b8063313ce56711610252578063313ce567146103ae5780634fb17470146103cc57806350d25bcd146103fa57806354fd4d5014610402578063585aa7de1461040a578063668a0f02146105305761028a565b80630a7569831461028f5780630eafb25b14610299578063181f5a77146102d157806322adbc781461034e578063299372681461036d575b600080fd5b610297610c3a565b005b6102bf600480360360208110156102af57600080fd5b50356001600160a01b0316610cc8565b60408051918252519081900360200190f35b6102d9610df7565b6040805160208082528351818301528351919283929083019185019080838360005b838110156103135781810151838201526020016102fb565b50505050905090810190601f1680156103405780820380516001836020036101000a031916815260200191505b509250505060405180910390f35b610356610e17565b6040805160179290920b8252519081900360200190f35b610375610e3b565b6040805163ffffffff96871681529486166020860152928516848401529084166060840152909216608082015290519081900360a00190f35b6103b6610e9c565b6040805160ff9092168252519081900360200190f35b610297600480360360408110156103e257600080fd5b506001600160a01b0381358116916020013516610ec0565b6102bf611148565b6102bf6111d5565b610297600480360360a081101561042057600080fd5b810190602081018135600160201b81111561043a57600080fd5b82018360208201111561044c57600080fd5b803590602001918460208302840111600160201b8311171561046d57600080fd5b919390929091602081019035600160201b81111561048a57600080fd5b82018360208201111561049c57600080fd5b803590602001918460208302840111600160201b831117156104bd57600080fd5b9193909260ff833516926001600160401b03602082013516929190606081019060400135600160201b8111156104f257600080fd5b82018360208201111561050457600080fd5b803590602001918460018302840111600160201b8311171561052557600080fd5b5090925090506111da565b6102bf6119bf565b6105ec6004803603604081101561054e57600080fd5b6001600160a01b038235169190810190604081016020820135600160201b81111561057857600080fd5b82018360208201111561058a57600080fd5b803590602001918460018302840111600160201b831117156105ab57600080fd5b91908080601f016020809104026020016040519081016040528093929190818152602001838380828437600092019190915250929550611a47945050505050565b604080519115158252519081900360200190f35b610356611a6f565b610610611a93565b604080516001600160a01b039092168252519081900360200190f35b6102d9611aa2565b610297611b2a565b610297611bd9565b61064c611c68565b60408051602080825283518183015283519192839290830191858101910280838360005b83811015610688578181015183820152602001610670565b505050509050019250505060405180910390f35b6106a4611cca565b6040805163ffffffff94851681529290931660208301526001600160801b0319168183015290519081900360600190f35b6102bf611cea565b610297600480360360208110156106f357600080fd5b50356001600160a01b0316611d72565b6102976004803603602081101561071957600080fd5b50356001600160a01b0316611e39565b610610611eb0565b610739611ebf565b604080516001600160a01b03909316835263ffffffff90911660208301528051918290030190f35b610769611ef2565b604080516001600160501b039092168252519081900360200190f35b6106106120c5565b6107b3600480360360208110156107a357600080fd5b50356001600160501b03166120d4565b60405180866001600160501b03168152602001858152602001848152602001838152602001826001600160501b031681526020019550505050505060405180910390f35b6102976004803603604081101561080d57600080fd5b810190602081018135600160201b81111561082757600080fd5b82018360208201111561083957600080fd5b803590602001918460208302840111600160201b8311171561085a57600080fd5b919390929091602081019035600160201b81111561087757600080fd5b82018360208201111561088957600080fd5b803590602001918460208302840111600160201b831117156108aa57600080fd5b509092509050612175565b610297600480360360208110156108cb57600080fd5b50356001600160a01b0316612378565b610297600480360360208110156108f157600080fd5b50356001600160a01b031661243c565b6102976004803603602081101561091757600080fd5b50356001600160a01b0316612492565b6102bf6004803603602081101561093d57600080fd5b5035612573565b6102bf6004803603602081101561095a57600080fd5b50356125fc565b610297600480360360a081101561097757600080fd5b5063ffffffff813581169160208101358216916040820135811691606081013582169160809091013516612685565b610297600480360360408110156109bc57600080fd5b506001600160a01b0381351690602001356127b4565b610297600480360360808110156109e857600080fd5b810190602081018135600160201b811115610a0257600080fd5b820183602082011115610a1457600080fd5b803590602001918460018302840111600160201b83111715610a3557600080fd5b919390929091602081019035600160201b811115610a5257600080fd5b820183602082011115610a6457600080fd5b803590602001918460208302840111600160201b83111715610a8557600080fd5b919390929091602081019035600160201b811115610aa257600080fd5b820183602082011115610ab457600080fd5b803590602001918460208302840111600160201b83111715610ad557600080fd5b919350915035612a77565b6102bf6137c5565b6105ec613856565b610b1660048036036020811015610b0657600080fd5b50356001600160a01b031661385f565b6040805161ffff9092168252519081900360200190f35b610b3561390c565b604080516001600160801b0319909616865263ffffffff909416602086015260ff9092168484015260170b60608401526001600160401b03166080830152519081900360a00190f35b6106106139bc565b61029760048036036040811015610b9c57600080fd5b5080356001600160a01b0316906020013563ffffffff166139cb565b61029760048036036040811015610bce57600080fd5b506001600160a01b0381358116916020013516613afc565b61029760048036036020811015610bfc57600080fd5b50356001600160a01b0316613c3f565b61029760048036036020811015610c2257600080fd5b50356001600160a01b0316613cdd565b6107b3613d33565b6000546001600160a01b03163314610c87576040805162461bcd60e51b8152602060048201526016602482015260008051602061512f833981519152604482015290519081900360640190fd5b60315460ff1615610cc6576031805460ff191690556040517f3be8a977a014527b50ae38adda80b56911c267328965c98ddc385d248f53963890600090a15b565b6001600160a01b03811660009081526028602090815260408083208151808301909252805460ff808216845285948401916101009004166002811115610d0a57fe5b6002811115610d1557fe5b9052509050600081602001516002811115610d2c57fe5b1415610d3c576000915050610df2565b6040805160a08101825260025463ffffffff8082168352600160201b820481166020840152600160401b8204811693830193909352600160601b8104831660608301819052600160801b90910490921660808201528251909160009160019060059060ff16601f8110610dab57fe5b601091828204019190066002029054906101000a900461ffff160361ffff1602633b9aca0002905060016009846000015160ff16601f8110610de957fe5b01540301925050505b919050565b60606040518060600160405280602881526020016150e360289139905090565b7f000000000000000000000000000000000000000000000000000000000000000081565b6040805160a08101825260025463ffffffff808216808452600160201b8304821660208501819052600160401b84048316958501869052600160601b8404831660608601819052600160801b90940490921660809094018490529490939290565b7f000000000000000000000000000000000000000000000000000000000000000081565b6000546001600160a01b03163314610f0d576040805162461bcd60e51b8152602060048201526016602482015260008051602061512f833981519152604482015290519081900360640190fd5b6003546001600160a01b03908116908316811415610f2b5750611144565b604080516370a0823160e01b815230600482015290516001600160a01b038516916370a08231916024808301926020929190829003018186803b158015610f7157600080fd5b505afa158015610f85573d6000803e3d6000fd5b505050506040513d6020811015610f9b57600080fd5b50610fa69050613dd2565b6000816001600160a01b03166370a08231306040518263ffffffff1660e01b815260040180826001600160a01b0316815260200191505060206040518083038186803b158015610ff557600080fd5b505afa158015611009573d6000803e3d6000fd5b505050506040513d602081101561101f57600080fd5b50516040805163a9059cbb60e01b81526001600160a01b0386811660048301526024820184905291519293509084169163a9059cbb916044808201926020929091908290030181600087803b15801561107757600080fd5b505af115801561108b573d6000803e3d6000fd5b505050506040513d60208110156110a157600080fd5b50516110f4576040805162461bcd60e51b815260206004820152601f60248201527f7472616e736665722072656d61696e696e672066756e6473206661696c656400604482015290519081900360640190fd5b600380546001600160a01b0319166001600160a01b0386811691821790925560405190918416907f4966a50c93f855342ccf6c5c0d358b85b91335b2acedc7da0932f691f351711a90600090a350505b5050565b600061118b336000368080601f016020809104026020016040519081016040528093929190818152602001838380828437600092019190915250611a4792505050565b6111c8576040805162461bcd60e51b81526020600482015260096024820152684e6f2061636365737360b81b604482015290519081900360640190fd5b6111d061415b565b905090565b600481565b868560ff86166001831161122a576040805162461bcd60e51b81526020600482015260126024820152716174206c656173742032207369676e65727360701b604482015290519081900360640190fd5b601f831115611273576040805162461bcd60e51b815260206004820152601060248201526f746f6f206d616e79207369676e65727360801b604482015290519081900360640190fd5b600081116112c8576040805162461bcd60e51b815260206004820152601a60248201527f7468726573686f6c64206d75737420626520706f736974697665000000000000604482015290519081900360640190fd5b8183146113065760405162461bcd60e51b815260040180806020018281038252602481526020018061510b6024913960400191505060405180910390fd5b80831161135a576040805162461bcd60e51b815260206004820181905260248201527f6661756c74792d6f7261636c65207468726573686f6c6420746f6f2068696768604482015290519081900360640190fd5b6000546001600160a01b031633146113a7576040805162461bcd60e51b8152602060048201526016602482015260008051602061512f833981519152604482015290519081900360640190fd5b602954156114a45760298054600019810191600091839081106113c657fe5b6000918252602082200154602a80546001600160a01b03909216935090849081106113ed57fe5b6000918252602090912001546001600160a01b0316905061140d81614184565b6001600160a01b03808316600090815260286020526040808220805461ffff199081169091559284168252902080549091169055602980548061144c57fe5b600082815260209020810160001990810180546001600160a01b0319169055019055602a80548061147957fe5b600082815260209020810160001990810180546001600160a01b0319169055019055506113a7915050565b60005b8a811015611800576000602860008e8e858181106114c157fe5b602090810292909201356001600160a01b031683525081019190915260400160002054610100900460ff1660028111156114f757fe5b14611549576040805162461bcd60e51b815260206004820152601760248201527f7265706561746564207369676e65722061646472657373000000000000000000604482015290519081900360640190fd5b6040805180820190915260ff8216815260016020820152602860008e8e8581811061157057fe5b602090810292909201356001600160a01b0316835250818101929092526040016000208251815460ff191660ff90911617808255918301519091829061ff0019166101008360028111156115c057fe5b02179055506000915060079050818c8c858181106115da57fe5b6001600160a01b036020918202939093013583168452830193909352604090910160002054169190911415905061164c576040805162461bcd60e51b81526020600482015260116024820152701c185e5959481b5d5cdd081899481cd95d607a1b604482015290519081900360640190fd5b6000602860008c8c8581811061165e57fe5b602090810292909201356001600160a01b031683525081019190915260400160002054610100900460ff16600281111561169457fe5b146116e6576040805162461bcd60e51b815260206004820152601c60248201527f7265706561746564207472616e736d6974746572206164647265737300000000604482015290519081900360640190fd5b6040805180820190915260ff8216815260026020820152602860008c8c8581811061170d57fe5b602090810292909201356001600160a01b0316835250818101929092526040016000208251815460ff191660ff90911617808255918301519091829061ff00191661010083600281111561175d57fe5b021790555090505060298c8c8381811061177357fe5b835460018101855560009485526020948590200180546001600160a01b0319166001600160a01b039590920293909301359390931692909217905550602a8a8a838181106117bd57fe5b835460018181018655600095865260209586902090910180546001600160a01b0319166001600160a01b03969093029490940135949094161790915550016114a7565b50602b805460ff8916600160a81b0260ff60a81b19909116179055602d80544363ffffffff908116600160201b90810267ffffffff0000000019841617808316600101831663ffffffff1990911617938490559091048116911661186c30828f8f8f8f8f8f8f8f61436c565b602b60000160006101000a8154816001600160801b03021916908360801c02179055506000602b60000160106101000a81548164ffffffffff021916908364ffffffffff1602179055507f25d719d88a4512dd76c7442b910a83360845505894eb444ef299409e180f8fb982828f8f8f8f8f8f8f8f604051808b63ffffffff1681526020018a6001600160401b0316815260200180602001806020018760ff168152602001866001600160401b031681526020018060200184810384528c8c82818152602001925060200280828437600083820152601f01601f191690910185810384528a8152602090810191508b908b0280828437600083820152601f01601f191690910185810383528681526020019050868680828437600083820152604051601f909101601f19169092018290039f50909d5050505050505050505050505050a150505050505050505050505050565b6000611a02336000368080601f016020809104026020016040519081016040528093929190818152602001838380828437600092019190915250611a4792505050565b611a3f576040805162461bcd60e51b81526020600482015260096024820152684e6f2061636365737360b81b604482015290519081900360640190fd5b6111d061446e565b6000611a538383614481565b80611a6657506001600160a01b03831632145b90505b92915050565b7f000000000000000000000000000000000000000000000000000000000000000081565b602f546001600160a01b031690565b6060611ae5336000368080601f016020809104026020016040519081016040528093929190818152602001838380828437600092019190915250611a4792505050565b611b22576040805162461bcd60e51b81526020600482015260096024820152684e6f2061636365737360b81b604482015290519081900360640190fd5b6111d06144b1565b6001546001600160a01b03163314611b82576040805162461bcd60e51b815260206004820152601660248201527526bab9ba10313290383937b837b9b2b21037bbb732b960511b604482015290519081900360640190fd5b60008054336001600160a01b0319808316821784556001805490911690556040516001600160a01b0390921692909183917f8be0079c531659141344cd1fd0a4f28419497f9722a3daafe3b4186f6b6457e091a350565b6000546001600160a01b03163314611c26576040805162461bcd60e51b8152602060048201526016602482015260008051602061512f833981519152604482015290519081900360640190fd5b60315460ff16610cc6576031805460ff191660011790556040517faebf329500988c6488a0074e5a0a9ff304561fc5c6fc877aeb1d59c8282c348090600090a1565b6060602a805480602002602001604051908101604052809291908181526020018280548015611cc057602002820191906000526020600020905b81546001600160a01b03168152600190910190602001808311611ca2575b5050505050905090565b602d54602b5463ffffffff80831692600160201b9004169060801b909192565b6000611d2d336000368080601f016020809104026020016040519081016040528093929190818152602001838380828437600092019190915250611a4792505050565b611d6a576040805162461bcd60e51b81526020600482015260096024820152684e6f2061636365737360b81b604482015290519081900360640190fd5b6111d061453e565b6000546001600160a01b03163314611dbf576040805162461bcd60e51b8152602060048201526016602482015260008051602061512f833981519152604482015290519081900360640190fd5b6001600160a01b03811660009081526032602052604090205460ff1615611e36576001600160a01b038116600081815260326020908152604091829020805460ff19169055815192835290517f3d68a6fce901d20453d1a7aa06bf3950302a735948037deb182a8db66df2a0d19281900390910190a15b50565b6001600160a01b03818116600090815260076020526040902054163314611ea7576040805162461bcd60e51b815260206004820152601760248201527f4f6e6c792070617965652063616e207769746864726177000000000000000000604482015290519081900360640190fd5b611e3681614184565b6000546001600160a01b031681565b60408051808201909152602e546001600160a01b038116808352600160a01b90910463ffffffff16602090920182905291565b600080546001600160a01b0316331480611fb55750602f5460408051630d629b5f60e31b815233600482018181526024830193845236604484018190526001600160a01b0390951694636b14daf894929360009391929190606401848480828437600083820152604051601f909101601f1916909201965060209550909350505081840390508186803b158015611f8857600080fd5b505afa158015611f9c573d6000803e3d6000fd5b505050506040513d6020811015611fb257600080fd5b50515b612006576040805162461bcd60e51b815260206004820152601d60248201527f4f6e6c79206f776e6572267265717565737465722063616e2063616c6c000000604482015290519081900360640190fd5b6040805160808082018352602b549081901b6001600160801b031916808352600160801b820464ffffffffff8116602080860191909152600160a81b840460ff90811686880152600160b01b90940463ffffffff9081166060808801919091528751948552600884901c909116918401919091529216818501529251919233927f3ea16a923ff4b1df6526e854c9e3a995c43385d70e73359e10623c74f0b52037929181900390910190a2806060015160010163ffffffff1691505090565b6004546001600160a01b031690565b600080600080600061211d336000368080601f016020809104026020016040519081016040528093929190818152602001838380828437600092019190915250611a4792505050565b61215a576040805162461bcd60e51b81526020600482015260096024820152684e6f2061636365737360b81b604482015290519081900360640190fd5b61216386614570565b939a9299509097509550909350915050565b6000546001600160a01b031633146121c2576040805162461bcd60e51b8152602060048201526016602482015260008051602061512f833981519152604482015290519081900360640190fd5b828114612216576040805162461bcd60e51b815260206004820181905260248201527f7472616e736d6974746572732e73697a6520213d207061796565732e73697a65604482015290519081900360640190fd5b60005b8381101561237157600085858381811061222f57fe5b905060200201356001600160a01b03169050600084848481811061224f57fe5b6001600160a01b03858116600090815260076020908152604090912054920293909301358316935090911690508015808061229b5750826001600160a01b0316826001600160a01b0316145b6122e0576040805162461bcd60e51b81526020600482015260116024820152701c185e595948185b1c9958591e481cd95d607a1b604482015290519081900360640190fd5b6001600160a01b03848116600090815260076020526040902080546001600160a01b0319168583169081179091559083161461236157826001600160a01b0316826001600160a01b0316856001600160a01b03167f78af32efdcad432315431e9b03d27e6cd98fb79c405fdc5af7c1714d9c0f75b360405160405180910390a45b5050600190920191506122199050565b5050505050565b6000546001600160a01b031633146123c5576040805162461bcd60e51b8152602060048201526016602482015260008051602061512f833981519152604482015290519081900360640190fd5b602f546001600160a01b03908116908216811461114457602f80546001600160a01b0319166001600160a01b03848116918217909255604080519284168352602083019190915280517f27b89aede8b560578baaa25ee5ce3852c5eecad1e114b941bbd89e1eb4bae6349281900390910190a15050565b6000546001600160a01b03163314612489576040805162461bcd60e51b8152602060048201526016602482015260008051602061512f833981519152604482015290519081900360640190fd5b611e3681614694565b6001600160a01b03818116600090815260086020526040902054163314612500576040805162461bcd60e51b815260206004820152601f60248201527f6f6e6c792070726f706f736564207061796565732063616e2061636365707400604482015290519081900360640190fd5b6001600160a01b0381811660008181526007602090815260408083208054336001600160a01b031980831682179093556008909452828520805490921690915590519416939092849290917f78af32efdcad432315431e9b03d27e6cd98fb79c405fdc5af7c1714d9c0f75b39190a45050565b60006125b6336000368080601f016020809104026020016040519081016040528093929190818152602001838380828437600092019190915250611a4792505050565b6125f3576040805162461bcd60e51b81526020600482015260096024820152684e6f2061636365737360b81b604482015290519081900360640190fd5b611a698261470f565b600061263f336000368080601f016020809104026020016040519081016040528093929190818152602001838380828437600092019190915250611a4792505050565b61267c576040805162461bcd60e51b81526020600482015260096024820152684e6f2061636365737360b81b604482015290519081900360640190fd5b611a6982614745565b6004546000546001600160a01b039182169116331480612746575060408051630d629b5f60e31b815233600482018181526024830193845236604484018190526001600160a01b03861694636b14daf8946000939190606401848480828437600083820152604051601f909101601f1916909201965060209550909350505081840390508186803b15801561271957600080fd5b505afa15801561272d573d6000803e3d6000fd5b505050506040513d602081101561274357600080fd5b50515b612797576040805162461bcd60e51b815260206004820181905260248201527f4f6e6c79206f776e65722662696c6c696e6741646d696e2063616e2063616c6c604482015290519081900360640190fd5b61279f613dd2565b6127ac8686868686614784565b505050505050565b6000546001600160a01b031633148061287557506004805460408051630d629b5f60e31b8152339381018481526024820192835236604483018190526001600160a01b0390941694636b14daf8949093600093919291606401848480828437600083820152604051601f909101601f1916909201965060209550909350505081840390508186803b15801561284857600080fd5b505afa15801561285c573d6000803e3d6000fd5b505050506040513d602081101561287257600080fd5b50515b6128c6576040805162461bcd60e51b815260206004820181905260248201527f4f6e6c79206f776e65722662696c6c696e6741646d696e2063616e2063616c6c604482015290519081900360640190fd5b60006128d061486d565b600354604080516370a0823160e01b815230600482015290519293506000926001600160a01b03909216916370a0823191602480820192602092909190829003018186803b15801561292157600080fd5b505afa158015612935573d6000803e3d6000fd5b505050506040513d602081101561294b57600080fd5b505190508181101561299b576040805162461bcd60e51b8152602060048201526014602482015273696e73756666696369656e742062616c616e636560601b604482015290519081900360640190fd5b6003546001600160a01b031663a9059cbb856129b985850387614a21565b6040518363ffffffff1660e01b815260040180836001600160a01b0316815260200182815260200192505050602060405180830381600087803b1580156129ff57600080fd5b505af1158015612a13573d6000803e3d6000fd5b505050506040513d6020811015612a2957600080fd5b5051612a71576040805162461bcd60e51b8152602060048201526012602482015271696e73756666696369656e742066756e647360701b604482015290519081900360640190fd5b50505050565b60005a9050612a8a888888888888614a38565b3614612add576040805162461bcd60e51b815260206004820152601960248201527f7472616e736d6974206d65737361676520746f6f206c6f6e6700000000000000604482015290519081900360640190fd5b612ae5614f78565b6040805160808082018352602b549081901b6001600160801b0319168252600160801b810464ffffffffff166020830152600160a81b810460ff1692820192909252600160b01b90910463ffffffff166060808301919091529082526000908a908a90811015612b5457600080fd5b813591602081013591810190606081016040820135600160201b811115612b7a57600080fd5b820183602082011115612b8c57600080fd5b803590602001918460208302840111600160201b83111715612bad57600080fd5b91908080602002602001604051908101604052809392919081815260200183836020028082843760009201919091525050505060408801525050506080840182905283515190925060589190911b906001600160801b0319808316911614612c54576040805162461bcd60e51b81526020600482015260156024820152740c6dedcccd2ce88d2cecae6e840dad2e6dac2e8c6d605b1b604482015290519081900360640190fd5b608083015183516020015164ffffffffff808316911610612cab576040805162461bcd60e51b815260206004820152600c60248201526b1cdd185b19481c995c1bdc9d60a21b604482015290519081900360640190fd5b83516040015160ff168911612cff576040805162461bcd60e51b81526020600482015260156024820152746e6f7420656e6f756768207369676e61747572657360581b604482015290519081900360640190fd5b601f891115612d4b576040805162461bcd60e51b8152602060048201526013602482015272746f6f206d616e79207369676e61747572657360681b604482015290519081900360640190fd5b868914612d9f576040805162461bcd60e51b815260206004820152601e60248201527f7369676e617475726573206f7574206f6620726567697374726174696f6e0000604482015290519081900360640190fd5b601f8460400151511115612dfa576040805162461bcd60e51b815260206004820152601e60248201527f6e756d206f62736572766174696f6e73206f7574206f6620626f756e64730000604482015290519081900360640190fd5b83600001516040015160020260ff1684604001515111612e61576040805162461bcd60e51b815260206004820152601e60248201527f746f6f206665772076616c75657320746f207472757374206d656469616e0000604482015290519081900360640190fd5b886001600160401b0381118015612e7757600080fd5b506040519080825280601f01601f191660200182016040528015612ea2576020820181803683370190505b50606085015260005b60ff81168a1115612efb57868160ff1660208110612ec557fe5b1a60f81b85606001518260ff1681518110612edc57fe5b60200101906001600160f81b031916908160001a905350600101612eab565b508360400151516001600160401b0381118015612f1757600080fd5b506040519080825280601f01601f191660200182016040528015612f42576020820181803683370190505b506020850152612f50614fac565b60005b8560400151518160ff16101561303e576000858260ff1660208110612f7457fe5b1a90508281601f8110612f8357fe5b602002015115612fda576040805162461bcd60e51b815260206004820152601760248201527f6f6273657276657220696e646578207265706561746564000000000000000000604482015290519081900360640190fd5b6001838260ff16601f8110612feb57fe5b91151560209283029190910152869060ff841690811061300757fe5b1a60f81b87602001518360ff168151811061301e57fe5b60200101906001600160f81b031916908160001a90535050600101612f53565b503360009081526028602090815260408083208151808301909252805460ff8082168452929391929184019161010090910416600281111561307c57fe5b600281111561308757fe5b905250905060028160200151600281111561309e57fe5b1480156130d25750602a816000015160ff16815481106130ba57fe5b6000918252602090912001546001600160a01b031633145b613123576040805162461bcd60e51b815260206004820152601860248201527f756e617574686f72697a6564207472616e736d69747465720000000000000000604482015290519081900360640190fd5b5050835164ffffffffff90911660209091015250506040516000908a908a9080838380828437604051920182900390912094506131649350614fac92505050565b61316c614fcb565b60005b8981101561335c5760006001858760600151848151811061318c57fe5b60209101015160f81c601b018e8e868181106131a457fe5b905060200201358d8d878181106131b757fe5b9050602002013560405160008152602001604052604051808581526020018460ff1681526020018381526020018281526020019450505050506020604051602081039080840390855afa158015613212573d6000803e3d6000fd5b505060408051601f198101516001600160a01b03811660009081526028602090815290849020838501909452835460ff8082168552929650929450840191610100900416600281111561326157fe5b600281111561326c57fe5b905250925060018360200151600281111561328357fe5b146132d5576040805162461bcd60e51b815260206004820152601e60248201527f61646472657373206e6f7420617574686f72697a656420746f207369676e0000604482015290519081900360640190fd5b8251849060ff16601f81106132e657fe5b602002015115613334576040805162461bcd60e51b81526020600482015260146024820152736e6f6e2d756e69717565207369676e617475726560601b604482015290519081900360640190fd5b600184846000015160ff16601f811061334957fe5b911515602090920201525060010161316f565b5050505060005b60018260400151510381101561340d5760008260400151826001018151811061338857fe5b602002602001015160170b836040015183815181106133a357fe5b602002602001015160170b1315905080613404576040805162461bcd60e51b815260206004820152601760248201527f6f62736572766174696f6e73206e6f7420736f72746564000000000000000000604482015290519081900360640190fd5b50600101613363565b5060408101518051600091906002810490811061342657fe5b602002602001015190508060170b7f000000000000000000000000000000000000000000000000000000000000000060170b1315801561348c57507f000000000000000000000000000000000000000000000000000000000000000060170b8160170b13155b6134dd576040805162461bcd60e51b815260206004820152601e60248201527f6d656469616e206973206f7574206f66206d696e2d6d61782072616e67650000604482015290519081900360640190fd5b81516060908101805163ffffffff60019091018116909152604080518082018252601785810b8083526001600160401b0342811660208086019182528a5189015188166000908152602c8252878120965187549351909416600160c01b029390950b6001600160c01b039081166001600160c01b03199093169290921790911691909117909355875186015184890151848a01516080808c015188519586523386890181905291860181905260a0988601898152845199870199909952835194909916997ff6a97944f31ea060dfde0566e4167c1a1082551e64b60ecb14d599a9d023d451998c999298949793969095909492939185019260c086019289820192909102908190849084905b838110156136015781810151838201526020016135e9565b50505050905001838103825285818151815260200191508051906020019080838360005b8381101561363d578181015183820152602001613625565b50505050905090810190601f16801561366a5780820380516001836020036101000a031916815260200191505b5097505050505050505060405180910390a281516060015160408051428152905160009263ffffffff16917f0109fc6f55cf40689f02fbaad7af7fe7bbac8a3d2186600afc7d3e10cac60271919081900360200190a381600001516060015163ffffffff168160170b7f0559884fd3a460db3073b7fc896cc77986f16e378210ded43186175bf646fc5f426040518082815260200191505060405180910390a361371f8260000151606001518260170b614a50565b5080518051602b8054602084015160408501516060909501516001600160801b031990921660809490941c9390931764ffffffffff60801b1916600160801b64ffffffffff909416939093029290921760ff60a81b1916600160a81b60ff909416939093029290921763ffffffff60b01b1916600160b01b63ffffffff928316021790915582106137ac57fe5b6137ba828260200151614b48565b505050505050505050565b600354604080516370a0823160e01b8152306004820152905160009283926001600160a01b03909116916370a0823191602480820192602092909190829003018186803b15801561381557600080fd5b505afa158015613829573d6000803e3d6000fd5b505050506040513d602081101561383f57600080fd5b50519050600061384d61486d565b90910391505090565b60315460ff1681565b6001600160a01b03811660009081526028602090815260408083208151808301909252805460ff8082168452859484019161010090041660028111156138a157fe5b60028111156138ac57fe5b90525090506000816020015160028111156138c357fe5b14156138d3576000915050610df2565b60016005826000015160ff16601f81106138e957fe5b601091828204019190066002029054906101000a900461ffff1603915050919050565b60008080808033321461395d576040805162461bcd60e51b81526020600482015260146024820152734f6e6c792063616c6c61626c6520627920454f4160601b604482015290519081900360640190fd5b5050602b5463ffffffff600160b01b820481166000908152602c6020526040902054608083901b96600160801b909304600881901c909216955064ffffffffff9091169350601781900b9250600160c01b90046001600160401b031690565b6003546001600160a01b031690565b6000546001600160a01b03163314613a18576040805162461bcd60e51b8152602060048201526016602482015260008051602061512f833981519152604482015290519081900360640190fd5b60408051808201909152602e546001600160a01b03808216808452600160a01b90920463ffffffff1660208401528416141580613a6557508163ffffffff16816020015163ffffffff1614155b15613af7576040805180820182526001600160a01b0385811680835263ffffffff8681166020948501819052602e80546001600160a01b031916841763ffffffff60a01b1916600160a01b8302179055865187860151875193168352948201528451919493909216927fb04e3a37abe9c0fcdfebdeae019a8e2b12ddf53f5d55ffb0caccc1bedaca1541928290030190a35b505050565b6001600160a01b03828116600090815260076020526040902054163314613b6a576040805162461bcd60e51b815260206004820152601d60248201527f6f6e6c792063757272656e742070617965652063616e20757064617465000000604482015290519081900360640190fd5b336001600160a01b0382161415613bc8576040805162461bcd60e51b815260206004820152601760248201527f63616e6e6f74207472616e7366657220746f2073656c66000000000000000000604482015290519081900360640190fd5b6001600160a01b03808316600090815260086020526040902080548383166001600160a01b031982168117909255909116908114613af7576040516001600160a01b038084169133918616907f84f7c7c80bb8ed2279b4aab5f61cd05e6374073d38f46d7f32de8c30e9e3836790600090a4505050565b6000546001600160a01b03163314613c8c576040805162461bcd60e51b8152602060048201526016602482015260008051602061512f833981519152604482015290519081900360640190fd5b600180546001600160a01b0319166001600160a01b0383811691821790925560008054604051929316917fed8889f560326eb138920d842192f0eb3dd22b4f139c87a2c57538e05bae12789190a350565b6000546001600160a01b03163314613d2a576040805162461bcd60e51b8152602060048201526016602482015260008051602061512f833981519152604482015290519081900360640190fd5b611e3681614d70565b6000806000806000613d7c336000368080601f016020809104026020016040519081016040528093929190818152602001838380828437600092019190915250611a4792505050565b613db9576040805162461bcd60e51b81526020600482015260096024820152684e6f2061636365737360b81b604482015290519081900360640190fd5b613dc1614de7565b945094509450945094509091929394565b6040805160a08101825260025463ffffffff8082168352600160201b820481166020840152600160401b8204811683850152600160601b820481166060840152600160801b90910416608082015260035482516103e081019384905291926001600160a01b0390911691600091600590601f908285855b82829054906101000a900461ffff1661ffff1681526020019060020190602082600101049283019260010382029150808411613e49575050604080516103e0810191829052959650600095945060099350601f9250905082845b815481526020019060010190808311613ea357505050505090506000602a805480602002602001604051908101604052809291908181526020018280548015613f1557602002820191906000526020600020905b81546001600160a01b03168152600190910190602001808311613ef7575b5050505050905060005b815181101561413f57600060018483601f8110613f3857fe5b6020020151039050600060018684601f8110613f5057fe5b60200201510361ffff169050600082896060015163ffffffff168302633b9aca0002019050600081111561413457600060076000878781518110613f9057fe5b60200260200101516001600160a01b03166001600160a01b0316815260200190815260200160002060009054906101000a90046001600160a01b03169050886001600160a01b031663a9059cbb82846040518363ffffffff1660e01b815260040180836001600160a01b0316815260200182815260200192505050602060405180830381600087803b15801561402557600080fd5b505af1158015614039573d6000803e3d6000fd5b505050506040513d602081101561404f57600080fd5b5051614097576040805162461bcd60e51b8152602060048201526012602482015271696e73756666696369656e742066756e647360701b604482015290519081900360640190fd5b60018886601f81106140a557fe5b61ffff909216602092909202015260018786601f81106140c157fe5b602002018181525050886001600160a01b0316816001600160a01b03168787815181106140ea57fe5b60200260200101516001600160a01b03167fd0b1dac935d85bd54cf0a33b0d41d39f8cf53a968465fc7ea2377526b8ac712c856040518082815260200191505060405180910390a4505b505050600101613f1f565b5061414d600584601f614fe2565b506127ac600983601f615078565b602b54600160b01b900463ffffffff166000908152602c6020526040902054601790810b900b90565b6001600160a01b03811660009081526028602090815260408083208151808301909252805460ff808216845292939192918401916101009091041660028111156141ca57fe5b60028111156141d557fe5b905250905060006141e583610cc8565b90508015613af7576001600160a01b03808416600090815260076020908152604080832054600354825163a9059cbb60e01b8152918616600483018190526024830188905292519295169363a9059cbb9360448084019491939192918390030190829087803b15801561425757600080fd5b505af115801561426b573d6000803e3d6000fd5b505050506040513d602081101561428157600080fd5b50516142c9576040805162461bcd60e51b8152602060048201526012602482015271696e73756666696369656e742066756e647360701b604482015290519081900360640190fd5b60016005846000015160ff16601f81106142df57fe5b601091828204019190066002026101000a81548161ffff021916908361ffff16021790555060016009846000015160ff16601f811061431a57fe5b01556003546040805184815290516001600160a01b039283169284811692908816917fd0b1dac935d85bd54cf0a33b0d41d39f8cf53a968465fc7ea2377526b8ac712c9181900360200190a450505050565b60008a8a8a8a8a8a8a8a8a8a604051602001808b6001600160a01b031681526020018a6001600160401b0316815260200180602001806020018760ff168152602001866001600160401b031681526020018060200184810384528c8c82818152602001925060200280828437600083820152601f01601f191690910185810384528a8152602090810191508b908b0280828437600083820152601f01601f191690910185810383528681526020019050868680828437600081840152601f19601f8201169050808301925050509d50505050505050505050505050506040516020818303038152906040528051906020012090509a9950505050505050505050565b602b54600160b01b900463ffffffff1690565b6001600160a01b03821660009081526032602052604081205460ff1680611a6657505060315460ff161592915050565b60308054604080516020601f6002600019610100600188161502019095169490940493840181900481028201810190925282815260609390929091830182828015611cc05780601f1061451257610100808354040283529160200191611cc0565b820191906000526020600020905b81548152906001019060200180831161452057509395945050505050565b602b54600160b01b900463ffffffff166000908152602c6020526040902054600160c01b90046001600160401b031690565b600080600080600063ffffffff866001600160501b031611156040518060400160405280600f81526020016e139bc819185d18481c1c995cd95b9d608a1b8152509061463a5760405162461bcd60e51b81526004018080602001828103825283818151815260200191508051906020019080838360005b838110156145ff5781810151838201526020016145e7565b50505050905090810190601f16801561462c5780820380516001836020036101000a031916815260200191505b509250505060405180910390fd5b5050505063ffffffff83166000908152602c6020908152604091829020825180840190935254601781810b810b810b808552600160c01b9092046001600160401b031693909201839052949594900b939092508291508490565b6001600160a01b03811660009081526032602052604090205460ff16611e36576001600160a01b038116600081815260326020908152604091829020805460ff19166001179055815192835290517f87286ad1f399c8e82bf0c4ef4fcdc570ea2e1e92176e5c848b6413545b885db49281900390910190a150565b600063ffffffff82111561472557506000610df2565b5063ffffffff166000908152602c6020526040902054601790810b900b90565b600063ffffffff82111561475b57506000610df2565b5063ffffffff166000908152602c6020526040902054600160c01b90046001600160401b031690565b6040805160a0808201835263ffffffff88811680845288821660208086018290528984168688018190528985166060808901829052958a1660809889018190526002805463ffffffff1916871767ffffffff000000001916600160201b8702176bffffffff00000000000000001916600160401b85021763ffffffff60601b1916600160601b84021763ffffffff60801b1916600160801b830217905589519586529285019390935283880152928201529283015291517fd0d9486a2c673e2a4b57fc82e4c8a556b3e2b82dd5db07e2c04a920ca0f469b6929181900390910190a15050505050565b604080516103e0810191829052600091829190600590601f908285855b82829054906101000a900461ffff1661ffff168152602001906002019060208260010104928301926001038202915080841161488a5790505050505050905060005b601f8110156148fa5760018282601f81106148e357fe5b60200201510361ffff1692909201916001016148cc565b506040805160a08101825260025463ffffffff8082168352600160201b82048116602080850191909152600160401b8304821684860152600160601b8304821660608501819052600160801b9093049091166080840152602a805485518184028101840190965280865296909202633b9aca00029592936000939092918301828280156149b057602002820191906000526020600020905b81546001600160a01b03168152600190910190602001808311614992575b5050604080516103e0810191829052949550600094935060099250601f915082845b8154815260200190600101908083116149d2575050505050905060005b8251811015614a195760018282601f8110614a0657fe5b60200201510395909501946001016149ef565b505050505090565b600081831015614a32575081611a69565b50919050565b602083810286019082020160e4019695505050505050565b60408051808201909152602e546001600160a01b038116808352600160a01b90910463ffffffff166020830152614a875750611144565b600019830163ffffffff8181166000818152602c6020908152604080832054875188840151835163beed9b5160e01b81526004810197909752601792830b90920b602487018190528b88166044880152606487018b9052925192966001600160a01b039091169563beed9b51959290911693608480830194919391928390030190829088803b158015614b1957600080fd5b5087f193505050508015614b3f57506040513d6020811015614b3a57600080fd5b505160015b6127ac57612371565b3360009081526028602090815260408083208151808301909252805460ff80821684529293919291840191610100909104166002811115614b8557fe5b6002811115614b9057fe5b9052506040805160a08101825260025463ffffffff8082168352600160201b820481166020840152600160401b8204811683850152600160601b820481166060840152600160801b90910416608082015281516103e081019283905292935091614c4491859190600590601f90826000855b82829054906101000a900461ffff1661ffff1681526020019060020190602082600101049283019260010382029150808411614c025790505050505050614e42565b614c5290600590601f614fe2565b50600282602001516002811115614c6557fe5b14614cb7576040805162461bcd60e51b815260206004820181905260248201527f73656e7420627920756e64657369676e61746564207472616e736d6974746572604482015290519081900360640190fd5b6000614cde633b9aca003a04836020015163ffffffff16846000015163ffffffff16614eb7565b90506010360260005a90506000614cfd8863ffffffff16858585614edd565b6001600160801b031690506000620f4240866040015163ffffffff16830281614d2257fe5b049050856080015163ffffffff16633b9aca0002816009896000015160ff16601f8110614d4b57fe5b015401016009886000015160ff16601f8110614d6357fe5b0155505050505050505050565b6004546001600160a01b03908116908216811461114457600480546001600160a01b0319166001600160a01b03848116918217909255604080519284168352602083019190915280517f793cb73064f3c8cde7e187ae515511e6e56d1ee89bf08b82fa60fb70f8d489129281900390910190a15050565b602b54600160b01b900463ffffffff166000818152602c6020908152604091829020825180840190935254601781810b810b810b808552600160c01b9092046001600160401b031693909201839052929392900b9181908490565b614e4a614fac565b60005b8351811015614eaf576000848281518110614e6457fe5b016020015160f81c9050614e898482601f8110614e7d57fe5b60200201516001614f60565b848260ff16601f8110614e9857fe5b61ffff909216602092909202015250600101614e4d565b509092915050565b60008383811015614eca57600285850304015b614ed48184614a21565b95945050505050565b600081851015614f34576040805162461bcd60e51b815260206004820181905260248201527f6761734c6566742063616e6e6f742065786365656420696e697469616c476173604482015290519081900360640190fd5b818503830161179301633b9aca00858202026001600160801b038110614f5657fe5b9695505050505050565b6000611a668261ffff168461ffff160161ffff614a21565b6040518060a00160405280614f8b6150a6565b81526060602082018190526040820181905280820152600060809091015290565b604051806103e00160405280601f906020820280368337509192915050565b604080518082019091526000808252602082015290565b6002830191839082156150685791602002820160005b8382111561503857835183826101000a81548161ffff021916908361ffff1602179055509260200192600201602081600101049283019260010302614ff8565b80156150665782816101000a81549061ffff0219169055600201602081600101049283019260010302615038565b505b506150749291506150cd565b5090565b82601f8101928215615068579160200282015b8281111561506857825182559160200191906001019061508b565b60408051608081018252600080825260208201819052918101829052606081019190915290565b5b8082111561507457600081556001016150ce56fe416363657373436f6e74726f6c6c65644f6666636861696e41676772656761746f7220332e302e306f7261636c6520616464726573736573206f7574206f6620726567697374726174696f6e4f6e6c792063616c6c61626c65206279206f776e657200000000000000000000a2646970667358221220cc4580948542f7843989abf926f4a1e4ddb82dad2877886cf9b94f339705fc7864736f6c63430007060033",
    "sourcePath": "c:/Rintagi/chainlink-ocr-helper/contracts/libocr/AccessControlledOffchainAggregator.sol",
    "compiler": {
        "name": "solc",
        "version": "0.7.6+commit.7338295f"
    },
    "functionHashes": {
        "acceptOwnership()": "79ba5097",
        "acceptPayeeship(address)": "b121e147",
        "addAccess(address)": "a118f249",
        "billingAccessController()": "996e8298",
        "checkEnabled()": "dc7f0124",
        "decimals()": "313ce567",
        "description()": "7284e416",
        "disableAccessCheck()": "0a756983",
        "enableAccessCheck()": "8038e4a1",
        "getAnswer(uint256)": "b5ab58dc",
        "getBilling()": "29937268",
        "getLinkToken()": "e76d5168",
        "getRoundData(uint80)": "9a6fc8f5",
        "getTimestamp(uint256)": "b633620c",
        "hasAccess(address,bytes)": "6b14daf8",
        "latestAnswer()": "50d25bcd",
        "latestConfigDetails()": "81ff7048",
        "latestRound()": "668a0f02",
        "latestRoundData()": "feaf968c",
        "latestTimestamp()": "8205bf6a",
        "latestTransmissionDetails()": "e5fe4577",
        "linkAvailableForPayment()": "d09dc339",
        "maxAnswer()": "70da2f67",
        "minAnswer()": "22adbc78",
        "oracleObservationCount(address)": "e4902f82",
        "owedPayment(address)": "0eafb25b",
        "owner()": "8da5cb5b",
        "removeAccess(address)": "8823da6c",
        "requestNewRound()": "98e5b12a",
        "requesterAccessController()": "70efdf2d",
        "setBilling(uint32,uint32,uint32,uint32,uint32)": "bd824706",
        "setBillingAccessController(address)": "fbffd2c1",
        "setConfig(address[],address[],uint8,uint64,bytes)": "585aa7de",
        "setLinkToken(address,address)": "4fb17470",
        "setPayees(address[],address[])": "9c849b30",
        "setRequesterAccessController(address)": "9e3ceeab",
        "setValidatorConfig(address,uint32)": "eb457163",
        "transferOwnership(address)": "f2fde38b",
        "transferPayeeship(address,address)": "eb5dcd6c",
        "transmit(bytes,bytes32[],bytes32[],bytes32)": "c9807539",
        "transmitters()": "81411834",
        "typeAndVersion()": "181f5a77",
        "validatorConfig()": "8e0566de",
        "version()": "54fd4d50",
        "withdrawFunds(address,uint256)": "c1075329",
        "withdrawPayment(address)": "8ac28d5a"
    },
    "gasEstimates": {
        "creation": {
            "codeDepositCost": "4173600",
            "executionCost": "infinite",
            "totalCost": "infinite"
        },
        "external": {
            "acceptOwnership()": "44333",
            "acceptPayeeship(address)": "44953",
            "addAccess(address)": "infinite",
            "billingAccessController()": "1127",
            "checkEnabled()": "1121",
            "decimals()": "infinite",
            "description()": "infinite",
            "disableAccessCheck()": "infinite",
            "enableAccessCheck()": "infinite",
            "getAnswer(uint256)": "infinite",
            "getBilling()": "1486",
            "getLinkToken()": "1081",
            "getRoundData(uint80)": "infinite",
            "getTimestamp(uint256)": "infinite",
            "hasAccess(address,bytes)": "infinite",
            "latestAnswer()": "infinite",
            "latestConfigDetails()": "1993",
            "latestRound()": "infinite",
            "latestRoundData()": "infinite",
            "latestTimestamp()": "infinite",
            "latestTransmissionDetails()": "2354",
            "linkAvailableForPayment()": "infinite",
            "maxAnswer()": "infinite",
            "minAnswer()": "infinite",
            "oracleObservationCount(address)": "4036",
            "owedPayment(address)": "5879",
            "owner()": "1192",
            "removeAccess(address)": "infinite",
            "requestNewRound()": "infinite",
            "requesterAccessController()": "1127",
            "setBilling(uint32,uint32,uint32,uint32,uint32)": "infinite",
            "setBillingAccessController(address)": "infinite",
            "setConfig(address[],address[],uint8,uint64,bytes)": "infinite",
            "setLinkToken(address,address)": "infinite",
            "setPayees(address[],address[])": "infinite",
            "setRequesterAccessController(address)": "infinite",
            "setValidatorConfig(address,uint32)": "infinite",
            "transferOwnership(address)": "infinite",
            "transferPayeeship(address,address)": "24183",
            "transmit(bytes,bytes32[],bytes32[],bytes32)": "infinite",
            "transmitters()": "infinite",
            "typeAndVersion()": "infinite",
            "validatorConfig()": "1202",
            "version()": "310",
            "withdrawFunds(address,uint256)": "infinite",
            "withdrawPayment(address)": "infinite"
        }
    }
}