{
    "contractName": "OCRConfig",
    "abi": [
        {
            "inputs": [
                {
                    "internalType": "uint8",
                    "name": "networkType",
                    "type": "uint8"
                },
                {
                    "internalType": "uint64",
                    "name": "alphaPPB",
                    "type": "uint64"
                }
            ],
            "name": "getDeltaParams",
            "outputs": [
                {
                    "internalType": "uint64[7]",
                    "name": "packed",
                    "type": "uint64[7]"
                }
            ],
            "stateMutability": "pure",
            "type": "function"
        },
        {
            "inputs": [
                {
                    "internalType": "uint64",
                    "name": "alphaPPB",
                    "type": "uint64"
                },
                {
                    "internalType": "uint8",
                    "name": "rMax",
                    "type": "uint8"
                },
                {
                    "internalType": "uint8[]",
                    "name": "s",
                    "type": "uint8[]"
                },
                {
                    "internalType": "bytes32[]",
                    "name": "offchainPublicKeys",
                    "type": "bytes32[]"
                },
                {
                    "internalType": "string",
                    "name": "peerIDs",
                    "type": "string"
                },
                {
                    "internalType": "bytes32",
                    "name": "diffieHellmanPoint",
                    "type": "bytes32"
                },
                {
                    "internalType": "bytes32",
                    "name": "sharedSecretHash",
                    "type": "bytes32"
                },
                {
                    "internalType": "bytes16[]",
                    "name": "encryptions",
                    "type": "bytes16[]"
                }
            ],
            "name": "makeFastSetConfigEncodedComponents",
            "outputs": [
                {
                    "internalType": "bytes",
                    "name": "encodedComponenents",
                    "type": "bytes"
                }
            ],
            "stateMutability": "pure",
            "type": "function"
        },
        {
            "inputs": [
                {
                    "internalType": "uint64",
                    "name": "alphaPPB",
                    "type": "uint64"
                },
                {
                    "internalType": "uint8",
                    "name": "rMax",
                    "type": "uint8"
                },
                {
                    "internalType": "uint8[]",
                    "name": "s",
                    "type": "uint8[]"
                },
                {
                    "internalType": "bytes32[]",
                    "name": "offchainPublicKeys",
                    "type": "bytes32[]"
                },
                {
                    "internalType": "string",
                    "name": "peerIDs",
                    "type": "string"
                },
                {
                    "internalType": "bytes32",
                    "name": "diffieHellmanPoint",
                    "type": "bytes32"
                },
                {
                    "internalType": "bytes32",
                    "name": "sharedSecretHash",
                    "type": "bytes32"
                },
                {
                    "internalType": "bytes16[]",
                    "name": "encryptions",
                    "type": "bytes16[]"
                }
            ],
            "name": "makeModerateSetConfigEncodedComponents",
            "outputs": [
                {
                    "internalType": "bytes",
                    "name": "encodedComponenents",
                    "type": "bytes"
                }
            ],
            "stateMutability": "pure",
            "type": "function"
        },
        {
            "inputs": [
                {
                    "internalType": "uint64[7]",
                    "name": "config",
                    "type": "uint64[7]"
                },
                {
                    "internalType": "uint8",
                    "name": "rMax",
                    "type": "uint8"
                },
                {
                    "internalType": "uint8[]",
                    "name": "s",
                    "type": "uint8[]"
                },
                {
                    "internalType": "bytes32[]",
                    "name": "offchainPublicKeys",
                    "type": "bytes32[]"
                },
                {
                    "internalType": "string",
                    "name": "peerIDs",
                    "type": "string"
                },
                {
                    "internalType": "bytes32",
                    "name": "diffieHellmanPoint",
                    "type": "bytes32"
                },
                {
                    "internalType": "bytes32",
                    "name": "sharedSecretHash",
                    "type": "bytes32"
                },
                {
                    "internalType": "bytes16[]",
                    "name": "encryptions",
                    "type": "bytes16[]"
                }
            ],
            "name": "makeSetConfigEncodedComponents",
            "outputs": [
                {
                    "internalType": "bytes",
                    "name": "encodedComponenents",
                    "type": "bytes"
                }
            ],
            "stateMutability": "pure",
            "type": "function"
        },
        {
            "inputs": [
                {
                    "internalType": "uint64",
                    "name": "alphaPPB",
                    "type": "uint64"
                },
                {
                    "internalType": "uint8",
                    "name": "rMax",
                    "type": "uint8"
                },
                {
                    "internalType": "uint8[]",
                    "name": "s",
                    "type": "uint8[]"
                },
                {
                    "internalType": "bytes32[]",
                    "name": "offchainPublicKeys",
                    "type": "bytes32[]"
                },
                {
                    "internalType": "string",
                    "name": "peerIDs",
                    "type": "string"
                },
                {
                    "internalType": "bytes32",
                    "name": "diffieHellmanPoint",
                    "type": "bytes32"
                },
                {
                    "internalType": "bytes32",
                    "name": "sharedSecretHash",
                    "type": "bytes32"
                },
                {
                    "internalType": "bytes16[]",
                    "name": "encryptions",
                    "type": "bytes16[]"
                }
            ],
            "name": "makeSlowSetConfigEncodedComponents",
            "outputs": [
                {
                    "internalType": "bytes",
                    "name": "encodedComponenents",
                    "type": "bytes"
                }
            ],
            "stateMutability": "pure",
            "type": "function"
        },
        {
            "inputs": [
                {
                    "internalType": "uint64",
                    "name": "alphaPPB",
                    "type": "uint64"
                },
                {
                    "internalType": "uint8",
                    "name": "rMax",
                    "type": "uint8"
                },
                {
                    "internalType": "uint8[]",
                    "name": "s",
                    "type": "uint8[]"
                },
                {
                    "internalType": "bytes32[]",
                    "name": "offchainPublicKeys",
                    "type": "bytes32[]"
                },
                {
                    "internalType": "string",
                    "name": "peerIDs",
                    "type": "string"
                },
                {
                    "internalType": "bytes32",
                    "name": "diffieHellmanPoint",
                    "type": "bytes32"
                },
                {
                    "internalType": "bytes32",
                    "name": "sharedSecretHash",
                    "type": "bytes32"
                },
                {
                    "internalType": "bytes16[]",
                    "name": "encryptions",
                    "type": "bytes16[]"
                }
            ],
            "name": "makeTestnetSetConfigEncodedComponents",
            "outputs": [
                {
                    "internalType": "bytes",
                    "name": "encodedComponenents",
                    "type": "bytes"
                }
            ],
            "stateMutability": "pure",
            "type": "function"
        },
        {
            "inputs": [
                {
                    "internalType": "uint64",
                    "name": "deltaProgressNS",
                    "type": "uint64"
                },
                {
                    "internalType": "uint64",
                    "name": "deltaResendNS",
                    "type": "uint64"
                },
                {
                    "internalType": "uint64",
                    "name": "deltaRoundNS",
                    "type": "uint64"
                },
                {
                    "internalType": "uint64",
                    "name": "deltaGraceNS",
                    "type": "uint64"
                },
                {
                    "internalType": "uint64",
                    "name": "deltaC",
                    "type": "uint64"
                },
                {
                    "internalType": "uint64",
                    "name": "alphaPPB",
                    "type": "uint64"
                },
                {
                    "internalType": "uint64",
                    "name": "deltaStage",
                    "type": "uint64"
                }
            ],
            "name": "packDeltaComponent",
            "outputs": [
                {
                    "internalType": "uint64[7]",
                    "name": "packed",
                    "type": "uint64[7]"
                }
            ],
            "stateMutability": "pure",
            "type": "function"
        },
        {
            "inputs": [
                {
                    "components": [
                        {
                            "internalType": "uint64",
                            "name": "deltaProgress",
                            "type": "uint64"
                        },
                        {
                            "internalType": "uint64",
                            "name": "deltaResend",
                            "type": "uint64"
                        },
                        {
                            "internalType": "uint64",
                            "name": "deltaRound",
                            "type": "uint64"
                        },
                        {
                            "internalType": "uint64",
                            "name": "deltaGrace",
                            "type": "uint64"
                        },
                        {
                            "internalType": "uint64",
                            "name": "deltaC",
                            "type": "uint64"
                        },
                        {
                            "internalType": "uint64",
                            "name": "alphaPPB",
                            "type": "uint64"
                        },
                        {
                            "internalType": "uint64",
                            "name": "deltaStage",
                            "type": "uint64"
                        },
                        {
                            "internalType": "uint8",
                            "name": "rMax",
                            "type": "uint8"
                        },
                        {
                            "internalType": "uint8[]",
                            "name": "s",
                            "type": "uint8[]"
                        },
                        {
                            "internalType": "bytes32[]",
                            "name": "offchainPublicKeys",
                            "type": "bytes32[]"
                        },
                        {
                            "internalType": "string",
                            "name": "peerIDs",
                            "type": "string"
                        },
                        {
                            "components": [
                                {
                                    "internalType": "bytes32",
                                    "name": "diffieHellmanPoint",
                                    "type": "bytes32"
                                },
                                {
                                    "internalType": "bytes32",
                                    "name": "sharedSecretHash",
                                    "type": "bytes32"
                                },
                                {
                                    "internalType": "bytes16[]",
                                    "name": "encryptions",
                                    "type": "bytes16[]"
                                }
                            ],
                            "internalType": "struct OCRConfig.SharedSecretEncryptions",
                            "name": "sharedSecretEncryptions",
                            "type": "tuple"
                        }
                    ],
                    "internalType": "struct OCRConfig.SetConfigEncodedComponents",
                    "name": "components",
                    "type": "tuple"
                }
            ],
            "name": "setConfigEncodedComponents",
            "outputs": [
                {
                    "internalType": "bytes",
                    "name": "",
                    "type": "bytes"
                }
            ],
            "stateMutability": "pure",
            "type": "function"
        }
    ],
    "bytecode": "608060405234801561001057600080fd5b50611396806100206000396000f3fe608060405234801561001057600080fd5b50600436106100885760003560e01c80639338b1b71161005b5780639338b1b7146100fc5780639a1203fa1461010f578063a8c2a6ba14610122578063c272966e1461013557600080fd5b806325ec575d1461008d5780632f0bf56a146100b657806347fa6ebe146100d65780636213215b146100e9575b600080fd5b6100a061009b3660046106ad565b610148565b6040516100ad919061073c565b60405180910390f35b6100c96100c436600461077c565b610171565b6040516100ad91906107af565b6100a06100e4366004610875565b6102bd565b6100a06100f7366004610875565b6103d4565b6100a061010a366004610c19565b6103e4565b6100a061011d366004610875565b610562565b6100c9610130366004610d01565b610572565b6100a0610143366004610875565b61067f565b60608160405160200161015b9190610f42565b6040516020818303038152906040529050919050565b61017961068f565b633b9aca00600160ff851614156101d8576101d06101988260176110da565b6101a383600a6110da565b6101ae8460146110da565b6101b985600f6110da565b6101c486603c6110da565b886101308860056110da565b9150506102b7565b8360ff166002141561021e576101d06101f28260086110da565b6101fd8360056110da565b6102088460056110da565b6102138560036110da565b6101c486600a6110da565b8360ff1660031415610270576101d06102388260026110da565b6102438360026110da565b61024e8460016110da565b600261025b8660016110da565b6102659190611117565b6101c48660016110da565b6101d061027e8260176110da565b61028983600a6110da565b6102948460146110da565b61029f85600f6110da565b6102ab866102586110da565b886101308860146110da565b92915050565b60606103c36102cd60038f610171565b8d8d8d80806020026020016040519081016040528093929190818152602001838360200280828437600081840152601f19601f820116905080830192505050505050508c8c80806020026020016040519081016040528093929190818152602001838360200280828437600081840152601f19601f820116905080830192505050505050508b8b8080601f01602080910402602001604051908101604052809392919081815260200183838082843760009201919091525050604080516020808d0282810182019093528c82528f94508e935090918d918d9182918501908490808284376000920191909152506103e492505050565b9d9c50505050505050505050505050565b60606103c36102cd60018f610171565b60606040518061018001604052808a6000600781106104055761040561114b565b60200201516001600160401b031681526020018a60016007811061042b5761042b61114b565b60200201516001600160401b031681526020018a6002600781106104515761045161114b565b60200201516001600160401b031681526020018a6003600781106104775761047761114b565b60200201516001600160401b031681526020018a60046007811061049d5761049d61114b565b60200201516001600160401b031681526020018a6005600781106104c3576104c361114b565b60200201516001600160401b031681526020018a6006600781106104e9576104e961114b565b60200201516001600160401b031681526020018960ff1681526020018881526020018781526020018681526020016040518060600160405280878152602001868152602001858152508152506040516020016105459190611224565b604051602081830303815290604052905098975050505050505050565b60606103c36102cd60008f610171565b61057a61068f565b856001600160401b0316856001600160401b0316106105e05760405162461bcd60e51b815260206004820152601760248201527f64656c74614772616365203c2064656c7461526f756e6400000000000000000060448201526064015b60405180910390fd5b876001600160401b0316866001600160401b0316106106415760405162461bcd60e51b815260206004820152601a60248201527f64656c7461526f756e64203c2064656c746150726f677265737300000000000060448201526064016105d7565b6001600160401b03978816815295871660208701529386166040860152918516606085015284166080840152831660a083015290911660c082015290565b60606103c36102cd60028f610171565b6040518060e001604052806007906020820280368337509192915050565b6000602082840312156106bf57600080fd5b81356001600160401b038111156106d557600080fd5b820161018081850312156106e857600080fd5b9392505050565b6000815180845260005b81811015610715576020818501810151868301820152016106f9565b81811115610727576000602083870101525b50601f01601f19169290920160200192915050565b6020815260006106e860208301846106ef565b803560ff8116811461076057600080fd5b919050565b80356001600160401b038116811461076057600080fd5b6000806040838503121561078f57600080fd5b6107988361074f565b91506107a660208401610765565b90509250929050565b60e08101818360005b60078110156107e05781516001600160401b03168352602092830192909101906001016107b8565b50505092915050565b60008083601f8401126107fb57600080fd5b5081356001600160401b0381111561081257600080fd5b6020830191508360208260051b850101111561082d57600080fd5b9250929050565b60008083601f84011261084657600080fd5b5081356001600160401b0381111561085d57600080fd5b60208301915083602082850101111561082d57600080fd5b6000806000806000806000806000806000806101008d8f03121561089857600080fd5b6108a18d610765565b9b506108af60208e0161074f565b9a506001600160401b0360408e013511156108c957600080fd5b6108d98e60408f01358f016107e9565b909a5098506001600160401b0360608e013511156108f657600080fd5b6109068e60608f01358f016107e9565b90985096506001600160401b0360808e0135111561092357600080fd5b6109338e60808f01358f01610834565b909650945060a08d0135935060c08d013592506001600160401b0360e08e0135111561095e57600080fd5b61096e8e60e08f01358f016107e9565b81935080925050509295989b509295989b509295989b565b634e487b7160e01b600052604160045260246000fd5b604051601f8201601f191681016001600160401b03811182821017156109c4576109c4610986565b604052919050565b600082601f8301126109dd57600080fd5b60405160e081018181106001600160401b03821117156109ff576109ff610986565b6040528060e0840185811115610a1457600080fd5b845b81811015610a3557610a2781610765565b835260209283019201610a16565b509195945050505050565b60006001600160401b03821115610a5957610a59610986565b5060051b60200190565b600082601f830112610a7457600080fd5b81356020610a89610a8483610a40565b61099c565b82815260059290921b84018101918181019086841115610aa857600080fd5b8286015b84811015610aca57610abd8161074f565b8352918301918301610aac565b509695505050505050565b600082601f830112610ae657600080fd5b81356020610af6610a8483610a40565b82815260059290921b84018101918181019086841115610b1557600080fd5b8286015b84811015610aca5780358352918301918301610b19565b600082601f830112610b4157600080fd5b81356001600160401b03811115610b5a57610b5a610986565b610b6d601f8201601f191660200161099c565b818152846020838601011115610b8257600080fd5b816020850160208301376000918101602001919091529392505050565b80356001600160801b03198116811461076057600080fd5b600082601f830112610bc857600080fd5b81356020610bd8610a8483610a40565b82815260059290921b84018101918181019086841115610bf757600080fd5b8286015b84811015610aca57610c0c81610b9f565b8352918301918301610bfb565b6000806000806000806000806101c0898b031215610c3657600080fd5b610c408a8a6109cc565b9750610c4e60e08a0161074f565b96506101008901356001600160401b0380821115610c6b57600080fd5b610c778c838d01610a63565b97506101208b0135915080821115610c8e57600080fd5b610c9a8c838d01610ad5565b96506101408b0135915080821115610cb157600080fd5b610cbd8c838d01610b30565b95506101608b013594506101808b013593506101a08b0135915080821115610ce457600080fd5b50610cf18b828c01610bb7565b9150509295985092959890939650565b600080600080600080600060e0888a031215610d1c57600080fd5b610d2588610765565b9650610d3360208901610765565b9550610d4160408901610765565b9450610d4f60608901610765565b9350610d5d60808901610765565b9250610d6b60a08901610765565b9150610d7960c08901610765565b905092959891949750929550565b6000808335601e19843603018112610d9e57600080fd5b83016020810192503590506001600160401b03811115610dbd57600080fd5b8060051b360383131561082d57600080fd5b8183526000602080850194508260005b85811015610e055760ff610df28361074f565b1687529582019590820190600101610ddf565b509495945050505050565b81835260006001600160fb1b03831115610e2957600080fd5b8260051b8083602087013760009401602001938452509192915050565b6000808335601e19843603018112610e5d57600080fd5b83016020810192503590506001600160401b03811115610e7c57600080fd5b80360383131561082d57600080fd5b81835281816020850137506000828201602090810191909152601f909101601f19169091010190565b60008235605e19833603018112610eca57600080fd5b90910192915050565b6000606083018235845260208084013581860152610ef46040850185610d87565b606060408801529283905291600090608087015b81831015610f37576001600160801b0319610f2286610b9f565b16815293830193600192909201918301610f08565b979650505050505050565b60208152610f6360208201610f5684610765565b6001600160401b03169052565b6000610f7160208401610765565b6001600160401b038116604084015250610f8d60408401610765565b6001600160401b038116606084015250610fa960608401610765565b6001600160401b038116608084015250610fc560808401610765565b6001600160401b03811660a084015250610fe160a08401610765565b6001600160401b03811660c084015250610ffd60c08401610765565b6001600160401b03811660e08401525061101960e0840161074f565b61010061102a8185018360ff169052565b61103681860186610d87565b9250905061018061012081818701526110546101a087018585610dcf565b935061106281880188610d87565b93509050601f19610140818887030181890152611080868685610e10565b955061108e818a018a610e46565b95509250506101608188870301818901526110aa868685610e8b565b95506110b8818a018a610eb4565b9450508087860301838801525050506110d18282610ed3565b95945050505050565b60006001600160401b038083168185168183048111821515161561110e57634e487b7160e01b600052601160045260246000fd5b02949350505050565b60006001600160401b038084168061113f57634e487b7160e01b600052601260045260246000fd5b92169190910492915050565b634e487b7160e01b600052603260045260246000fd5b600081518084526020808501945080840160005b83811015610e0557815160ff1687529582019590820190600101611175565b600081518084526020808501945080840160005b83811015610e05578151875295820195908201906001016111a8565b60006060830182518452602080840151818601526040840151606060408701528281518085526080880191508383019450600092505b80831015610aca5784516001600160801b03191682529383019360019290920191908301906111fa565b6020815261123e6020820183516001600160401b03169052565b6000602083015161125a60408401826001600160401b03169052565b5060408301516001600160401b03811660608401525060608301516001600160401b03811660808401525060808301516001600160401b03811660a08401525060a08301516001600160401b03811660c08401525060c08301516001600160401b03811660e08401525060e08301516101006112da8185018360ff169052565b8085015191505061018061012081818601526112fa6101a0860184611161565b9250808601519050601f1961014081878603018188015261131b8584611194565b94508088015192505061016081878603018188015261133a85846106ef565b90880151878203909201848801529350905061135683826111c4565b969550505050505056fea264697066735822122064901662cdbf32e15b1204cfe0473e2367b6d3ccf34828f918c5f0ec5682734e64736f6c63430008090033",
    "sourcePath": "c:/Rintagi/chainlink-ocr-helper/contracts/OCRConfig.sol",
    "compiler": {
        "name": "solc",
        "version": "0.8.9+commit.e5eed63a"
    },
    "functionHashes": {
        "getDeltaParams(uint8,uint64)": "2f0bf56a",
        "makeFastSetConfigEncodedComponents(uint64,uint8,uint8[],bytes32[],string,bytes32,bytes32,bytes16[])": "c272966e",
        "makeModerateSetConfigEncodedComponents(uint64,uint8,uint8[],bytes32[],string,bytes32,bytes32,bytes16[])": "6213215b",
        "makeSetConfigEncodedComponents(uint64[7],uint8,uint8[],bytes32[],string,bytes32,bytes32,bytes16[])": "9338b1b7",
        "makeSlowSetConfigEncodedComponents(uint64,uint8,uint8[],bytes32[],string,bytes32,bytes32,bytes16[])": "9a1203fa",
        "makeTestnetSetConfigEncodedComponents(uint64,uint8,uint8[],bytes32[],string,bytes32,bytes32,bytes16[])": "47fa6ebe",
        "packDeltaComponent(uint64,uint64,uint64,uint64,uint64,uint64,uint64)": "a8c2a6ba",
        "setConfigEncodedComponents((uint64,uint64,uint64,uint64,uint64,uint64,uint64,uint8,uint8[],bytes32[],string,(bytes32,bytes32,bytes16[])))": "25ec575d"
    },
    "gasEstimates": {
        "creation": {
            "codeDepositCost": "1002800",
            "executionCost": "1041",
            "totalCost": "1003841"
        },
        "external": {
            "getDeltaParams(uint8,uint64)": "infinite",
            "makeFastSetConfigEncodedComponents(uint64,uint8,uint8[],bytes32[],string,bytes32,bytes32,bytes16[])": "infinite",
            "makeModerateSetConfigEncodedComponents(uint64,uint8,uint8[],bytes32[],string,bytes32,bytes32,bytes16[])": "infinite",
            "makeSetConfigEncodedComponents(uint64[7],uint8,uint8[],bytes32[],string,bytes32,bytes32,bytes16[])": "infinite",
            "makeSlowSetConfigEncodedComponents(uint64,uint8,uint8[],bytes32[],string,bytes32,bytes32,bytes16[])": "infinite",
            "makeTestnetSetConfigEncodedComponents(uint64,uint8,uint8[],bytes32[],string,bytes32,bytes32,bytes16[])": "infinite",
            "packDeltaComponent(uint64,uint64,uint64,uint64,uint64,uint64,uint64)": "infinite",
            "setConfigEncodedComponents((uint64,uint64,uint64,uint64,uint64,uint64,uint64,uint8,uint8[],bytes32[],string,(bytes32,bytes32,bytes16[])))": "infinite"
        },
        "internal": {
            "_makeConfigEncodedComponents(uint64[7] memory,uint8,uint8[] memory,bytes32[] memory,string memory,bytes32,bytes32,bytes16[] memory)": "infinite"
        }
    }
}