{
    "contractName": "Operator",
    "abi": [
        {
            "inputs": [
                {
                    "internalType": "address",
                    "name": "link",
                    "type": "address"
                },
                {
                    "internalType": "address",
                    "name": "owner",
                    "type": "address"
                }
            ],
            "stateMutability": "nonpayable",
            "type": "constructor"
        },
        {
            "anonymous": false,
            "inputs": [
                {
                    "indexed": false,
                    "internalType": "address[]",
                    "name": "senders",
                    "type": "address[]"
                },
                {
                    "indexed": false,
                    "internalType": "address",
                    "name": "changedBy",
                    "type": "address"
                }
            ],
            "name": "AuthorizedSendersChanged",
            "type": "event"
        },
        {
            "anonymous": false,
            "inputs": [
                {
                    "indexed": true,
                    "internalType": "bytes32",
                    "name": "requestId",
                    "type": "bytes32"
                }
            ],
            "name": "CancelOracleRequest",
            "type": "event"
        },
        {
            "anonymous": false,
            "inputs": [
                {
                    "indexed": true,
                    "internalType": "bytes32",
                    "name": "specId",
                    "type": "bytes32"
                },
                {
                    "indexed": false,
                    "internalType": "address",
                    "name": "requester",
                    "type": "address"
                },
                {
                    "indexed": false,
                    "internalType": "bytes32",
                    "name": "requestId",
                    "type": "bytes32"
                },
                {
                    "indexed": false,
                    "internalType": "uint256",
                    "name": "payment",
                    "type": "uint256"
                },
                {
                    "indexed": false,
                    "internalType": "address",
                    "name": "callbackAddr",
                    "type": "address"
                },
                {
                    "indexed": false,
                    "internalType": "bytes4",
                    "name": "callbackFunctionId",
                    "type": "bytes4"
                },
                {
                    "indexed": false,
                    "internalType": "uint256",
                    "name": "cancelExpiration",
                    "type": "uint256"
                },
                {
                    "indexed": false,
                    "internalType": "uint256",
                    "name": "dataVersion",
                    "type": "uint256"
                },
                {
                    "indexed": false,
                    "internalType": "bytes",
                    "name": "data",
                    "type": "bytes"
                }
            ],
            "name": "OracleRequest",
            "type": "event"
        },
        {
            "anonymous": false,
            "inputs": [
                {
                    "indexed": true,
                    "internalType": "bytes32",
                    "name": "requestId",
                    "type": "bytes32"
                }
            ],
            "name": "OracleResponse",
            "type": "event"
        },
        {
            "anonymous": false,
            "inputs": [
                {
                    "indexed": true,
                    "internalType": "address",
                    "name": "accpetedContract",
                    "type": "address"
                }
            ],
            "name": "OwnableContractAccepted",
            "type": "event"
        },
        {
            "anonymous": false,
            "inputs": [
                {
                    "indexed": true,
                    "internalType": "address",
                    "name": "from",
                    "type": "address"
                },
                {
                    "indexed": true,
                    "internalType": "address",
                    "name": "to",
                    "type": "address"
                }
            ],
            "name": "OwnershipTransferRequested",
            "type": "event"
        },
        {
            "anonymous": false,
            "inputs": [
                {
                    "indexed": true,
                    "internalType": "address",
                    "name": "from",
                    "type": "address"
                },
                {
                    "indexed": true,
                    "internalType": "address",
                    "name": "to",
                    "type": "address"
                }
            ],
            "name": "OwnershipTransferred",
            "type": "event"
        },
        {
            "anonymous": false,
            "inputs": [
                {
                    "indexed": false,
                    "internalType": "address[]",
                    "name": "targets",
                    "type": "address[]"
                },
                {
                    "indexed": false,
                    "internalType": "address[]",
                    "name": "senders",
                    "type": "address[]"
                },
                {
                    "indexed": false,
                    "internalType": "address",
                    "name": "changedBy",
                    "type": "address"
                }
            ],
            "name": "TargetsUpdatedAuthorizedSenders",
            "type": "event"
        },
        {
            "inputs": [],
            "name": "GET_EXPIRY_TIME",
            "outputs": [
                {
                    "internalType": "uint256",
                    "name": "",
                    "type": "uint256"
                }
            ],
            "stateMutability": "view",
            "type": "function"
        },
        {
            "inputs": [
                {
                    "internalType": "address[]",
                    "name": "targets",
                    "type": "address[]"
                },
                {
                    "internalType": "address[]",
                    "name": "senders",
                    "type": "address[]"
                }
            ],
            "name": "acceptAuthorizedReceivers",
            "outputs": [],
            "stateMutability": "nonpayable",
            "type": "function"
        },
        {
            "inputs": [
                {
                    "internalType": "address[]",
                    "name": "ownable",
                    "type": "address[]"
                }
            ],
            "name": "acceptOwnableContracts",
            "outputs": [],
            "stateMutability": "nonpayable",
            "type": "function"
        },
        {
            "inputs": [],
            "name": "acceptOwnership",
            "outputs": [],
            "stateMutability": "nonpayable",
            "type": "function"
        },
        {
            "inputs": [
                {
                    "internalType": "bytes32",
                    "name": "requestId",
                    "type": "bytes32"
                },
                {
                    "internalType": "uint256",
                    "name": "payment",
                    "type": "uint256"
                },
                {
                    "internalType": "bytes4",
                    "name": "callbackFunc",
                    "type": "bytes4"
                },
                {
                    "internalType": "uint256",
                    "name": "expiration",
                    "type": "uint256"
                }
            ],
            "name": "cancelOracleRequest",
            "outputs": [],
            "stateMutability": "nonpayable",
            "type": "function"
        },
        {
            "inputs": [
                {
                    "internalType": "address payable[]",
                    "name": "receivers",
                    "type": "address[]"
                },
                {
                    "internalType": "uint256[]",
                    "name": "amounts",
                    "type": "uint256[]"
                }
            ],
            "name": "distributeFunds",
            "outputs": [],
            "stateMutability": "payable",
            "type": "function"
        },
        {
            "inputs": [
                {
                    "internalType": "bytes32",
                    "name": "requestId",
                    "type": "bytes32"
                },
                {
                    "internalType": "uint256",
                    "name": "payment",
                    "type": "uint256"
                },
                {
                    "internalType": "address",
                    "name": "callbackAddress",
                    "type": "address"
                },
                {
                    "internalType": "bytes4",
                    "name": "callbackFunctionId",
                    "type": "bytes4"
                },
                {
                    "internalType": "uint256",
                    "name": "expiration",
                    "type": "uint256"
                },
                {
                    "internalType": "bytes32",
                    "name": "data",
                    "type": "bytes32"
                }
            ],
            "name": "fulfillOracleRequest",
            "outputs": [
                {
                    "internalType": "bool",
                    "name": "",
                    "type": "bool"
                }
            ],
            "stateMutability": "nonpayable",
            "type": "function"
        },
        {
            "inputs": [
                {
                    "internalType": "bytes32",
                    "name": "requestId",
                    "type": "bytes32"
                },
                {
                    "internalType": "uint256",
                    "name": "payment",
                    "type": "uint256"
                },
                {
                    "internalType": "address",
                    "name": "callbackAddress",
                    "type": "address"
                },
                {
                    "internalType": "bytes4",
                    "name": "callbackFunctionId",
                    "type": "bytes4"
                },
                {
                    "internalType": "uint256",
                    "name": "expiration",
                    "type": "uint256"
                },
                {
                    "internalType": "bytes",
                    "name": "data",
                    "type": "bytes"
                }
            ],
            "name": "fulfillOracleRequest2",
            "outputs": [
                {
                    "internalType": "bool",
                    "name": "",
                    "type": "bool"
                }
            ],
            "stateMutability": "nonpayable",
            "type": "function"
        },
        {
            "inputs": [],
            "name": "getAuthorizedSenders",
            "outputs": [
                {
                    "internalType": "address[]",
                    "name": "",
                    "type": "address[]"
                }
            ],
            "stateMutability": "view",
            "type": "function"
        },
        {
            "inputs": [],
            "name": "getChainlinkToken",
            "outputs": [
                {
                    "internalType": "address",
                    "name": "",
                    "type": "address"
                }
            ],
            "stateMutability": "view",
            "type": "function"
        },
        {
            "inputs": [
                {
                    "internalType": "address",
                    "name": "sender",
                    "type": "address"
                }
            ],
            "name": "isAuthorizedSender",
            "outputs": [
                {
                    "internalType": "bool",
                    "name": "",
                    "type": "bool"
                }
            ],
            "stateMutability": "view",
            "type": "function"
        },
        {
            "inputs": [
                {
                    "internalType": "address",
                    "name": "sender",
                    "type": "address"
                },
                {
                    "internalType": "uint256",
                    "name": "amount",
                    "type": "uint256"
                },
                {
                    "internalType": "bytes",
                    "name": "data",
                    "type": "bytes"
                }
            ],
            "name": "onTokenTransfer",
            "outputs": [],
            "stateMutability": "nonpayable",
            "type": "function"
        },
        {
            "inputs": [
                {
                    "internalType": "address",
                    "name": "sender",
                    "type": "address"
                },
                {
                    "internalType": "uint256",
                    "name": "payment",
                    "type": "uint256"
                },
                {
                    "internalType": "bytes32",
                    "name": "specId",
                    "type": "bytes32"
                },
                {
                    "internalType": "address",
                    "name": "callbackAddress",
                    "type": "address"
                },
                {
                    "internalType": "bytes4",
                    "name": "callbackFunctionId",
                    "type": "bytes4"
                },
                {
                    "internalType": "uint256",
                    "name": "nonce",
                    "type": "uint256"
                },
                {
                    "internalType": "uint256",
                    "name": "dataVersion",
                    "type": "uint256"
                },
                {
                    "internalType": "bytes",
                    "name": "data",
                    "type": "bytes"
                }
            ],
            "name": "oracleRequest",
            "outputs": [],
            "stateMutability": "nonpayable",
            "type": "function"
        },
        {
            "inputs": [],
            "name": "owner",
            "outputs": [
                {
                    "internalType": "address",
                    "name": "",
                    "type": "address"
                }
            ],
            "stateMutability": "view",
            "type": "function"
        },
        {
            "inputs": [
                {
                    "internalType": "address",
                    "name": "to",
                    "type": "address"
                },
                {
                    "internalType": "bytes",
                    "name": "data",
                    "type": "bytes"
                }
            ],
            "name": "ownerForward",
            "outputs": [],
            "stateMutability": "nonpayable",
            "type": "function"
        },
        {
            "inputs": [
                {
                    "internalType": "address",
                    "name": "to",
                    "type": "address"
                },
                {
                    "internalType": "uint256",
                    "name": "value",
                    "type": "uint256"
                },
                {
                    "internalType": "bytes",
                    "name": "data",
                    "type": "bytes"
                }
            ],
            "name": "ownerTransferAndCall",
            "outputs": [
                {
                    "internalType": "bool",
                    "name": "success",
                    "type": "bool"
                }
            ],
            "stateMutability": "nonpayable",
            "type": "function"
        },
        {
            "inputs": [
                {
                    "internalType": "address",
                    "name": "sender",
                    "type": "address"
                },
                {
                    "internalType": "uint256",
                    "name": "payment",
                    "type": "uint256"
                },
                {
                    "internalType": "bytes32",
                    "name": "specId",
                    "type": "bytes32"
                },
                {
                    "internalType": "address",
                    "name": "callbackAddress",
                    "type": "address"
                },
                {
                    "internalType": "bytes4",
                    "name": "callbackFunctionId",
                    "type": "bytes4"
                },
                {
                    "internalType": "uint256",
                    "name": "nonce",
                    "type": "uint256"
                },
                {
                    "internalType": "uint256",
                    "name": "dataVersion",
                    "type": "uint256"
                },
                {
                    "internalType": "bytes",
                    "name": "data",
                    "type": "bytes"
                }
            ],
            "name": "requestOracleData",
            "outputs": [],
            "stateMutability": "nonpayable",
            "type": "function"
        },
        {
            "inputs": [
                {
                    "internalType": "address[]",
                    "name": "senders",
                    "type": "address[]"
                }
            ],
            "name": "setAuthorizedSenders",
            "outputs": [],
            "stateMutability": "nonpayable",
            "type": "function"
        },
        {
            "inputs": [
                {
                    "internalType": "address[]",
                    "name": "targets",
                    "type": "address[]"
                },
                {
                    "internalType": "address[]",
                    "name": "senders",
                    "type": "address[]"
                }
            ],
            "name": "setAuthorizedSendersOn",
            "outputs": [],
            "stateMutability": "nonpayable",
            "type": "function"
        },
        {
            "inputs": [
                {
                    "internalType": "address[]",
                    "name": "ownable",
                    "type": "address[]"
                },
                {
                    "internalType": "address",
                    "name": "newOwner",
                    "type": "address"
                }
            ],
            "name": "transferOwnableContracts",
            "outputs": [],
            "stateMutability": "nonpayable",
            "type": "function"
        },
        {
            "inputs": [
                {
                    "internalType": "address",
                    "name": "to",
                    "type": "address"
                }
            ],
            "name": "transferOwnership",
            "outputs": [],
            "stateMutability": "nonpayable",
            "type": "function"
        },
        {
            "inputs": [
                {
                    "internalType": "address",
                    "name": "recipient",
                    "type": "address"
                },
                {
                    "internalType": "uint256",
                    "name": "amount",
                    "type": "uint256"
                }
            ],
            "name": "withdraw",
            "outputs": [],
            "stateMutability": "nonpayable",
            "type": "function"
        },
        {
            "inputs": [],
            "name": "withdrawable",
            "outputs": [
                {
                    "internalType": "uint256",
                    "name": "",
                    "type": "uint256"
                }
            ],
            "stateMutability": "view",
            "type": "function"
        }
    ],
    "bytecode": "60a060405260016005553480156200001657600080fd5b5060405162002997380380620029978339810160408190526200003991620001ac565b808060006001600160a01b038216620000995760405162461bcd60e51b815260206004820152601860248201527f43616e6e6f7420736574206f776e657220746f207a65726f000000000000000060448201526064015b60405180910390fd5b600280546001600160a01b0319166001600160a01b0384811691909117909155811615620000cc57620000cc81620000e2565b505050506001600160a01b0316608052620001e4565b6001600160a01b0381163314156200013d5760405162461bcd60e51b815260206004820152601760248201527f43616e6e6f74207472616e7366657220746f2073656c66000000000000000000604482015260640162000090565b600380546001600160a01b0319166001600160a01b03838116918217909255600254604051919216907fed8889f560326eb138920d842192f0eb3dd22b4f139c87a2c57538e05bae127890600090a350565b80516001600160a01b0381168114620001a757600080fd5b919050565b60008060408385031215620001c057600080fd5b620001cb836200018f565b9150620001db602084016200018f565b90509250929050565b60805161275f62000238600039600081816101960152818161058c01528181610da301528181610e0901528181611000015281816111780152818161120b015281816115540152611910015261275f6000f3fe6080604052600436106101405760003560e01c80636bd59ec0116100b6578063a4c0ed361161006f578063a4c0ed3614610384578063ee56997b146103a4578063f2fde38b146103c4578063f3fef3a3146103e4578063fa00763a14610404578063fc4a03ed1461043d57600080fd5b80636bd59ec0146102de5780636de879d6146102f15780636ee4d5531461031157806379ba5097146103315780638da5cb5b14610346578063902fc3701461036457600080fd5b80633ec5bc14116101085780633ec5bc141461021957806340429946146102395780634ab0d1901461025957806350188301146102895780635ffa62881461029e5780636ae0bc76146102be57600080fd5b806301994b9914610145578063033f49f714610167578063165d35e1146101875780632408afaa146101d35780633613c0af146101f5575b600080fd5b34801561015157600080fd5b50610165610160366004611e6d565b61045d565b005b34801561017357600080fd5b50610165610182366004611f06565b610581565b34801561019357600080fd5b507f00000000000000000000000000000000000000000000000000000000000000005b6040516001600160a01b0390911681526020015b60405180910390f35b3480156101df57600080fd5b506101e8610707565b6040516101ca9190611f5b565b34801561020157600080fd5b5061020b61012c81565b6040519081526020016101ca565b34801561022557600080fd5b50610165610234366004611fa8565b610769565b34801561024557600080fd5b5061016561025436600461201c565b610819565b34801561026557600080fd5b506102796102743660046120bf565b610835565b60405190151581526020016101ca565b34801561029557600080fd5b5061020b6109e9565b3480156102aa57600080fd5b506101656102b9366004612119565b6109f8565b3480156102ca57600080fd5b506102796102d9366004612185565b610a32565b6101656102ec366004612119565b610c49565b3480156102fd57600080fd5b5061016561030c36600461201c565b610d98565b34801561031d57600080fd5b5061016561032c366004612209565b610eea565b34801561033d57600080fd5b50610165611081565b34801561035257600080fd5b506002546001600160a01b03166101b6565b34801561037057600080fd5b5061027961037f366004612246565b61112f565b34801561039057600080fd5b5061016561039f3660046122ac565b611200565b3480156103b057600080fd5b506101656103bf366004611e6d565b61133e565b3480156103d057600080fd5b506101656103df366004612379565b6114ea565b3480156103f057600080fd5b506101656103ff366004612396565b6114fe565b34801561041057600080fd5b5061027961041f366004612379565b6001600160a01b031660009081526020819052604090205460ff1690565b34801561044957600080fd5b50610165610458366004612119565b6115cd565b6104656116d4565b61048a5760405162461bcd60e51b8152600401610481906123c2565b60405180910390fd5b60005b8181101561057c578282828181106104a7576104a76123f9565b90506020020160208101906104bc9190612379565b6001600160a01b03166379ba50976040518163ffffffff1660e01b8152600401600060405180830381600087803b1580156104f657600080fd5b505af115801561050a573d6000803e3d6000fd5b50505050828282818110610520576105206123f9565b90506020020160208101906105359190612379565b6001600160a01b03167f615a0c1cb00a60d4acd77ec67acf2f17f223ef0932d591052fabc33643fe7e8260405160405180910390a28061057481612425565b91505061048d565b505050565b61058961170f565b827f00000000000000000000000000000000000000000000000000000000000000006001600160a01b0316816001600160a01b031614156106025760405162461bcd60e51b815260206004820152601360248201527243616e6e6f742063616c6c20746f204c494e4b60681b6044820152606401610481565b6001600160a01b0384163b6106595760405162461bcd60e51b815260206004820152601a60248201527f4d75737420666f727761726420746f206120636f6e74726163740000000000006044820152606401610481565b6000846001600160a01b03168484604051610675929190612440565b6000604051808303816000865af19150503d80600081146106b2576040519150601f19603f3d011682016040523d82523d6000602084013e6106b7565b606091505b50509050806107005760405162461bcd60e51b8152602060048201526015602482015274119bdc9dd85c9919590818d85b1b0819985a5b1959605a1b6044820152606401610481565b5050505050565b6060600180548060200260200160405190810160405280929190818152602001828054801561075f57602002820191906000526020600020905b81546001600160a01b03168152600190910190602001808311610741575b5050505050905090565b61077161170f565b60005b828110156108135783838281811061078e5761078e6123f9565b90506020020160208101906107a39190612379565b60405163f2fde38b60e01b81526001600160a01b038481166004830152919091169063f2fde38b90602401600060405180830381600087803b1580156107e857600080fd5b505af11580156107fc573d6000803e3d6000fd5b50505050808061080b90612425565b915050610774565b50505050565b61082a898989898989898989610d98565b505050505050505050565b600061083f611764565b600087815260046020526040902054879060081b60ff19166108a35760405162461bcd60e51b815260206004820152601b60248201527f4d757374206861766520612076616c69642072657175657374496400000000006044820152606401610481565b6108b2888888888860016117bb565b60405188907f9e9bc7616d42c2835d05ae617e508454e63b30b934be8aa932ebc125e0e58a6490600090a262061a805a10156109305760405162461bcd60e51b815260206004820181905260248201527f4d7573742070726f7669646520636f6e73756d657220656e6f756768206761736044820152606401610481565b6000866001600160a01b0316868a86604051602401610959929190918252602082015260400190565b60408051601f198184030181529181526020820180516001600160e01b03166001600160e01b03199094169390931790925290516109979190612450565b6000604051808303816000865af19150503d80600081146109d4576040519150601f19603f3d011682016040523d82523d6000602084013e6109d9565b606091505b50909a9950505050505050505050565b60006109f36118d1565b905090565b610a006116d4565b610a1c5760405162461bcd60e51b8152600401610481906123c2565b610a26848461045d565b610813848484846115cd565b6000610a3c611764565b600088815260046020526040902054889060081b60ff1916610aa05760405162461bcd60e51b815260206004820152601b60248201527f4d757374206861766520612076616c69642072657175657374496400000000006044820152606401610481565b8884848080601f0160208091040260200160405190810160405280939291908181526020018383808284376000920191909152505050506020810151828114610b2b5760405162461bcd60e51b815260206004820152601c60248201527f466972737420776f7264206d75737420626520726571756573744964000000006044820152606401610481565b610b3a8c8c8c8c8c60026117bb565b6040518c907f9e9bc7616d42c2835d05ae617e508454e63b30b934be8aa932ebc125e0e58a6490600090a262061a805a1015610bb85760405162461bcd60e51b815260206004820181905260248201527f4d7573742070726f7669646520636f6e73756d657220656e6f756768206761736044820152606401610481565b60008a6001600160a01b03168a8989604051602001610bd99392919061248b565b60408051601f1981840301815290829052610bf391612450565b6000604051808303816000865af19150503d8060008114610c30576040519150601f19603f3d011682016040523d82523d6000602084013e610c35565b606091505b50909e9d5050505050505050505050505050565b8215801590610c5757508281145b610ca35760405162461bcd60e51b815260206004820152601760248201527f496e76616c6964206172726179206c656e6774682873290000000000000000006044820152606401610481565b3460005b84811015610d55576000848483818110610cc357610cc36123f9565b905060200201359050610cdf818461198790919063ffffffff16565b9250868683818110610cf357610cf36123f9565b9050602002016020810190610d089190612379565b6001600160a01b03166108fc829081150290604051600060405180830381858888f19350505050158015610d40573d6000803e3d6000fd5b50508080610d4d90612425565b915050610ca7565b5080156107005760405162461bcd60e51b8152602060048201526011602482015270151bdbc81b5d58da08115512081cd95b9d607a1b6044820152606401610481565b336001600160a01b037f00000000000000000000000000000000000000000000000000000000000000001614610e065760405162461bcd60e51b815260206004820152601360248201527226bab9ba103ab9b2902624a725903a37b5b2b760691b6044820152606401610481565b857f00000000000000000000000000000000000000000000000000000000000000006001600160a01b0316816001600160a01b03161415610e7f5760405162461bcd60e51b815260206004820152601360248201527243616e6e6f742063616c6c20746f204c494e4b60681b6044820152606401610481565b600080610e908c8c8b8b8b8b6119ed565b91509150897fd8d7ecc4800d25fa53ce0372f13a416d98907a7ef3d8d3bdd79cf4fe75529c658d848e8d8d878d8d8d604051610ed4999897969594939291906124d8565b60405180910390a2505050505050505050505050565b6000610ef884338585611b18565b60008681526004602052604090205490915060081b60ff1990811690821614610f635760405162461bcd60e51b815260206004820152601e60248201527f506172616d7320646f206e6f74206d61746368207265717565737420494400006044820152606401610481565b42821115610fac5760405162461bcd60e51b815260206004820152601660248201527514995c5d595cdd081a5cc81b9bdd08195e1c1a5c995960521b6044820152606401610481565b6000858152600460205260408082208290555186917fa7842b9ec549398102c0d91b1b9919b2f20558aefdadf57528a95c6cd3292e9391a260405163a9059cbb60e01b8152336004820152602481018590527f00000000000000000000000000000000000000000000000000000000000000006001600160a01b03169063a9059cbb906044016020604051808303816000875af1158015611051573d6000803e3d6000fd5b505050506040513d601f19601f820116820180604052508101906110759190612542565b61070057610700612564565b6003546001600160a01b031633146110d45760405162461bcd60e51b815260206004820152601660248201527526bab9ba10313290383937b837b9b2b21037bbb732b960511b6044820152606401610481565b600280546001600160a01b0319808216339081179093556003805490911690556040516001600160a01b03909116919082907f8be0079c531659141344cd1fd0a4f28419497f9722a3daafe3b4186f6b6457e090600090a350565b600061113961170f565b83806111436118d1565b10156111615760405162461bcd60e51b81526004016104819061257a565b604051630200057560e51b81526001600160a01b037f00000000000000000000000000000000000000000000000000000000000000001690634000aea0906111b39089908990899089906004016125cf565b6020604051808303816000875af11580156111d2573d6000803e3d6000fd5b505050506040513d601f19601f820116820180604052508101906111f69190612542565b9695505050505050565b336001600160a01b037f0000000000000000000000000000000000000000000000000000000000000000161461126e5760405162461bcd60e51b815260206004820152601360248201527226bab9ba103ab9b2902624a725903a37b5b2b760691b6044820152606401610481565b6020810151819061127f8183611b72565b8460248401528360448401526000306001600160a01b0316846040516112a59190612450565b600060405180830381855af49150503d80600081146112e0576040519150601f19603f3d011682016040523d82523d6000602084013e6112e5565b606091505b50509050806113365760405162461bcd60e51b815260206004820152601860248201527f556e61626c6520746f20637265617465207265717565737400000000000000006044820152606401610481565b505050505050565b6113466116d4565b6113625760405162461bcd60e51b8152600401610481906123c2565b806113be5760405162461bcd60e51b815260206004820152602660248201527f4d7573742068617665206174206c65617374203120617574686f72697a65642060448201526539b2b73232b960d11b6064820152608401610481565b60015460005b8181101561142a576000806000600184815481106113e4576113e46123f9565b6000918252602080832091909101546001600160a01b031683528201929092526040019020805460ff19169115159190911790558061142281612425565b9150506113c4565b5060005b8281101561149c57600160008086868581811061144d5761144d6123f9565b90506020020160208101906114629190612379565b6001600160a01b031681526020810191909152604001600020805460ff19169115159190911790558061149481612425565b91505061142e565b506114a960018484611db2565b507ff263cfb3e4298332e776194610cf9fdc09ccb3ada8b9aa39764d882e11fbf0a08383336040516114dd93929190612640565b60405180910390a1505050565b6114f261170f565b6114fb81611c51565b50565b61150661170f565b80806115106118d1565b101561152e5760405162461bcd60e51b81526004016104819061257a565b60405163a9059cbb60e01b81526001600160a01b038481166004830152602482018490527f0000000000000000000000000000000000000000000000000000000000000000169063a9059cbb906044016020604051808303816000875af115801561159d573d6000803e3d6000fd5b505050506040513d601f19601f820116820180604052508101906115c19190612542565b61057c5761057c612564565b6115d56116d4565b6115f15760405162461bcd60e51b8152600401610481906123c2565b7f1bb185903e2cb2f1b303523128b60e314dea81df4f8d9b7351cadd344f6e7727848484843360405161162895949392919061266c565b60405180910390a160005b838110156107005784848281811061164d5761164d6123f9565b90506020020160208101906116629190612379565b6001600160a01b031663ee56997b84846040518363ffffffff1660e01b815260040161168f9291906126ae565b600060405180830381600087803b1580156116a957600080fd5b505af11580156116bd573d6000803e3d6000fd5b5050505080806116cc90612425565b915050611633565b3360009081526020819052604081205460ff16806109f35750336117006002546001600160a01b031690565b6001600160a01b031614905090565b6002546001600160a01b031633146117625760405162461bcd60e51b815260206004820152601660248201527527b7363c9031b0b63630b1363290313c9037bbb732b960511b6044820152606401610481565b565b3360009081526020819052604090205460ff166117625760405162461bcd60e51b81526020600482015260156024820152742737ba1030baba3437b934bd32b21039b2b73232b960591b6044820152606401610481565b60006117c986868686611b18565b60008881526004602052604090205490915060081b60ff19908116908216146118345760405162461bcd60e51b815260206004820152601e60248201527f506172616d7320646f206e6f74206d61746368207265717565737420494400006044820152606401610481565b61183d82611cfc565b60008881526004602052604090205460ff918216600160f81b90910490911611156118aa5760405162461bcd60e51b815260206004820152601860248201527f446174612076657273696f6e73206d757374206d6174636800000000000000006044820152606401610481565b6005546118b79087611987565b600555505050600093845250506004602052506040812055565b6000806118ea600160055461198790919063ffffffff16565b6040516370a0823160e01b81523060048201529091506119819082906001600160a01b037f000000000000000000000000000000000000000000000000000000000000000016906370a0823190602401602060405180830381865afa158015611957573d6000803e3d6000fd5b505050506040513d601f19601f8201168201806040525081019061197b91906126c2565b90611987565b91505090565b6000828211156119d95760405162461bcd60e51b815260206004820152601e60248201527f536166654d6174683a207375627472616374696f6e206f766572666c6f7700006044820152606401610481565b60006119e583856126db565b949350505050565b6040516bffffffffffffffffffffffff19606088901b16602082015260348101839052600090819060540160408051808303601f1901815291815281516020928301206000818152600490935291205490925060081b60ff191615611a8b5760405162461bcd60e51b8152602060048201526014602482015273135d5cdd081d5cd94818481d5b9a5c5d5948125160621b6044820152606401610481565b611a974261012c611d4c565b90506000611aa788888885611b18565b905060405180604001604052808260ff19168152602001611ac786611cfc565b60ff908116909152600085815260046020908152604090912083519390910151909116600160f81b0260089290921c919091179055600554611b099089611d4c565b60055550965096945050505050565b6040805160208082019690965260609490941b6bffffffffffffffffffffffff1916848201526001600160e01b03199290921660548401526058808401919091528151808403909101815260789092019052805191012090565b611b7e600260206126f2565b611b89906004612711565b81511015611bd25760405162461bcd60e51b8152602060048201526016602482015275092dcecc2d8d2c840e4cae2eacae6e840d8cadccee8d60531b6044820152606401610481565b6001600160e01b031982166336f43ceb60e11b1480611c0157506001600160e01b031982166320214ca360e11b145b611c4d5760405162461bcd60e51b815260206004820152601e60248201527f4d757374207573652077686974656c69737465642066756e6374696f6e7300006044820152606401610481565b5050565b6001600160a01b038116331415611caa5760405162461bcd60e51b815260206004820152601760248201527f43616e6e6f74207472616e7366657220746f2073656c660000000000000000006044820152606401610481565b600380546001600160a01b0319166001600160a01b03838116918217909255600254604051919216907fed8889f560326eb138920d842192f0eb3dd22b4f139c87a2c57538e05bae127890600090a350565b60006101008210611d485760405162461bcd60e51b81526020600482015260166024820152751b9d5b58995c881d1bdbc8189a59c81d1bc818d85cdd60521b6044820152606401610481565b5090565b600080611d598385612711565b905083811015611dab5760405162461bcd60e51b815260206004820152601b60248201527f536166654d6174683a206164646974696f6e206f766572666c6f7700000000006044820152606401610481565b9392505050565b828054828255906000526020600020908101928215611e05579160200282015b82811115611e055781546001600160a01b0319166001600160a01b03843516178255602090920191600190910190611dd2565b50611d489291505b80821115611d485760008155600101611e0d565b60008083601f840112611e3357600080fd5b50813567ffffffffffffffff811115611e4b57600080fd5b6020830191508360208260051b8501011115611e6657600080fd5b9250929050565b60008060208385031215611e8057600080fd5b823567ffffffffffffffff811115611e9757600080fd5b611ea385828601611e21565b90969095509350505050565b6001600160a01b03811681146114fb57600080fd5b60008083601f840112611ed657600080fd5b50813567ffffffffffffffff811115611eee57600080fd5b602083019150836020828501011115611e6657600080fd5b600080600060408486031215611f1b57600080fd5b8335611f2681611eaf565b9250602084013567ffffffffffffffff811115611f4257600080fd5b611f4e86828701611ec4565b9497909650939450505050565b6020808252825182820181905260009190848201906040850190845b81811015611f9c5783516001600160a01b031683529284019291840191600101611f77565b50909695505050505050565b600080600060408486031215611fbd57600080fd5b833567ffffffffffffffff811115611fd457600080fd5b611fe086828701611e21565b9094509250506020840135611ff481611eaf565b809150509250925092565b80356001600160e01b03198116811461201757600080fd5b919050565b60008060008060008060008060006101008a8c03121561203b57600080fd5b893561204681611eaf565b985060208a0135975060408a0135965060608a013561206481611eaf565b955061207260808b01611fff565b945060a08a0135935060c08a0135925060e08a013567ffffffffffffffff81111561209c57600080fd5b6120a88c828d01611ec4565b915080935050809150509295985092959850929598565b60008060008060008060c087890312156120d857600080fd5b863595506020870135945060408701356120f181611eaf565b93506120ff60608801611fff565b92506080870135915060a087013590509295509295509295565b6000806000806040858703121561212f57600080fd5b843567ffffffffffffffff8082111561214757600080fd5b61215388838901611e21565b9096509450602087013591508082111561216c57600080fd5b5061217987828801611e21565b95989497509550505050565b600080600080600080600060c0888a0312156121a057600080fd5b873596506020880135955060408801356121b981611eaf565b94506121c760608901611fff565b93506080880135925060a088013567ffffffffffffffff8111156121ea57600080fd5b6121f68a828b01611ec4565b989b979a50959850939692959293505050565b6000806000806080858703121561221f57600080fd5b843593506020850135925061223660408601611fff565b9396929550929360600135925050565b6000806000806060858703121561225c57600080fd5b843561226781611eaf565b935060208501359250604085013567ffffffffffffffff81111561228a57600080fd5b61217987828801611ec4565b634e487b7160e01b600052604160045260246000fd5b6000806000606084860312156122c157600080fd5b83356122cc81611eaf565b925060208401359150604084013567ffffffffffffffff808211156122f057600080fd5b818601915086601f83011261230457600080fd5b81358181111561231657612316612296565b604051601f8201601f19908116603f0116810190838211818310171561233e5761233e612296565b8160405282815289602084870101111561235757600080fd5b8260208601602083013760006020848301015280955050505050509250925092565b60006020828403121561238b57600080fd5b8135611dab81611eaf565b600080604083850312156123a957600080fd5b82356123b481611eaf565b946020939093013593505050565b6020808252601d908201527f43616e6e6f742073657420617574686f72697a65642073656e64657273000000604082015260600190565b634e487b7160e01b600052603260045260246000fd5b634e487b7160e01b600052601160045260246000fd5b60006000198214156124395761243961240f565b5060010190565b8183823760009101908152919050565b6000825160005b818110156124715760208186018101518583015201612457565b81811115612480576000828501525b509190910192915050565b6001600160e01b031984168152818360048301376000910160040190815292915050565b81835281816020850137506000828201602090810191909152601f909101601f19169091010190565b6001600160a01b038a81168252602082018a905260408201899052871660608201526001600160e01b03198616608082015260a0810185905260c0810184905261010060e0820181905260009061253283820185876124af565b9c9b505050505050505050505050565b60006020828403121561255457600080fd5b81518015158114611dab57600080fd5b634e487b7160e01b600052600160045260246000fd5b60208082526035908201527f416d6f756e74207265717565737465642069732067726561746572207468616e60408201527420776974686472617761626c652062616c616e636560581b606082015260800190565b60018060a01b03851681528360208201526060604082015260006111f66060830184866124af565b8183526000602080850194508260005b8581101561263557813561261a81611eaf565b6001600160a01b031687529582019590820190600101612607565b509495945050505050565b6040815260006126546040830185876125f7565b905060018060a01b0383166020830152949350505050565b6060815260006126806060830187896125f7565b82810360208401526126938186886125f7565b91505060018060a01b03831660408301529695505050505050565b6020815260006119e56020830184866125f7565b6000602082840312156126d457600080fd5b5051919050565b6000828210156126ed576126ed61240f565b500390565b600081600019048311821515161561270c5761270c61240f565b500290565b600082198211156127245761272461240f565b50019056fea2646970667358221220189bc6a6a5ffb1b57c1f76f3aa8646fc12f78c385864ace9f73511eb683e54a664736f6c634300080a0033",
    "sourcePath": "c:/Rintagi/chainlink-ocr-helper/contracts/flattened/Operator.sol",
    "compiler": {
        "name": "solc",
        "version": "0.8.10+commit.fc410830"
    },
    "functionHashes": {
        "GET_EXPIRY_TIME()": "3613c0af",
        "acceptAuthorizedReceivers(address[],address[])": "5ffa6288",
        "acceptOwnableContracts(address[])": "01994b99",
        "acceptOwnership()": "79ba5097",
        "cancelOracleRequest(bytes32,uint256,bytes4,uint256)": "6ee4d553",
        "distributeFunds(address[],uint256[])": "6bd59ec0",
        "fulfillOracleRequest(bytes32,uint256,address,bytes4,uint256,bytes32)": "4ab0d190",
        "fulfillOracleRequest2(bytes32,uint256,address,bytes4,uint256,bytes)": "6ae0bc76",
        "getAuthorizedSenders()": "2408afaa",
        "getChainlinkToken()": "165d35e1",
        "isAuthorizedSender(address)": "fa00763a",
        "onTokenTransfer(address,uint256,bytes)": "a4c0ed36",
        "oracleRequest(address,uint256,bytes32,address,bytes4,uint256,uint256,bytes)": "40429946",
        "owner()": "8da5cb5b",
        "ownerForward(address,bytes)": "033f49f7",
        "ownerTransferAndCall(address,uint256,bytes)": "902fc370",
        "requestOracleData(address,uint256,bytes32,address,bytes4,uint256,uint256,bytes)": "6de879d6",
        "setAuthorizedSenders(address[])": "ee56997b",
        "setAuthorizedSendersOn(address[],address[])": "fc4a03ed",
        "transferOwnableContracts(address[],address)": "3ec5bc14",
        "transferOwnership(address)": "f2fde38b",
        "withdraw(address,uint256)": "f3fef3a3",
        "withdrawable()": "50188301"
    },
    "gasEstimates": {
        "creation": {
            "codeDepositCost": "2015800",
            "executionCost": "infinite",
            "totalCost": "infinite"
        },
        "external": {
            "GET_EXPIRY_TIME()": "307",
            "acceptAuthorizedReceivers(address[],address[])": "infinite",
            "acceptOwnableContracts(address[])": "infinite",
            "acceptOwnership()": "52397",
            "cancelOracleRequest(bytes32,uint256,bytes4,uint256)": "infinite",
            "distributeFunds(address[],uint256[])": "infinite",
            "fulfillOracleRequest(bytes32,uint256,address,bytes4,uint256,bytes32)": "infinite",
            "fulfillOracleRequest2(bytes32,uint256,address,bytes4,uint256,bytes)": "infinite",
            "getAuthorizedSenders()": "infinite",
            "getChainlinkToken()": "infinite",
            "isAuthorizedSender(address)": "2656",
            "onTokenTransfer(address,uint256,bytes)": "infinite",
            "oracleRequest(address,uint256,bytes32,address,bytes4,uint256,uint256,bytes)": "infinite",
            "owner()": "2431",
            "ownerForward(address,bytes)": "infinite",
            "ownerTransferAndCall(address,uint256,bytes)": "infinite",
            "requestOracleData(address,uint256,bytes32,address,bytes4,uint256,uint256,bytes)": "infinite",
            "setAuthorizedSenders(address[])": "infinite",
            "setAuthorizedSendersOn(address[],address[])": "infinite",
            "transferOwnableContracts(address[],address)": "infinite",
            "transferOwnership(address)": "infinite",
            "withdraw(address,uint256)": "infinite",
            "withdrawable()": "infinite"
        },
        "internal": {
            "_buildFunctionHash(uint256,address,bytes4,uint256)": "infinite",
            "_canSetAuthorizedSenders()": "4380",
            "_fundsAvailable()": "infinite",
            "_safeCastToUint8(uint256)": "infinite",
            "_validateTokenTransferAction(bytes4,bytes memory)": "infinite",
            "_verifyOracleRequest(address,uint256,address,bytes4,uint256,uint256)": "infinite",
            "_verifyOracleResponse(bytes32,uint256,address,bytes4,uint256,uint256)": "infinite"
        }
    }
}