{
    "contractName": "SimpleWriteAccessController",
    "abi": [
        {
            "inputs": [],
            "stateMutability": "nonpayable",
            "type": "constructor"
        },
        {
            "anonymous": false,
            "inputs": [
                {
                    "indexed": false,
                    "internalType": "address",
                    "name": "user",
                    "type": "address"
                }
            ],
            "name": "AddedAccess",
            "type": "event"
        },
        {
            "anonymous": false,
            "inputs": [],
            "name": "CheckAccessDisabled",
            "type": "event"
        },
        {
            "anonymous": false,
            "inputs": [],
            "name": "CheckAccessEnabled",
            "type": "event"
        },
        {
            "anonymous": false,
            "inputs": [
                {
                    "indexed": true,
                    "internalType": "address",
                    "name": "from",
                    "type": "address"
                },
                {
                    "indexed": true,
                    "internalType": "address",
                    "name": "to",
                    "type": "address"
                }
            ],
            "name": "OwnershipTransferRequested",
            "type": "event"
        },
        {
            "anonymous": false,
            "inputs": [
                {
                    "indexed": true,
                    "internalType": "address",
                    "name": "from",
                    "type": "address"
                },
                {
                    "indexed": true,
                    "internalType": "address",
                    "name": "to",
                    "type": "address"
                }
            ],
            "name": "OwnershipTransferred",
            "type": "event"
        },
        {
            "anonymous": false,
            "inputs": [
                {
                    "indexed": false,
                    "internalType": "address",
                    "name": "user",
                    "type": "address"
                }
            ],
            "name": "RemovedAccess",
            "type": "event"
        },
        {
            "inputs": [],
            "name": "acceptOwnership",
            "outputs": [],
            "stateMutability": "nonpayable",
            "type": "function"
        },
        {
            "inputs": [
                {
                    "internalType": "address",
                    "name": "_user",
                    "type": "address"
                }
            ],
            "name": "addAccess",
            "outputs": [],
            "stateMutability": "nonpayable",
            "type": "function"
        },
        {
            "inputs": [],
            "name": "checkEnabled",
            "outputs": [
                {
                    "internalType": "bool",
                    "name": "",
                    "type": "bool"
                }
            ],
            "stateMutability": "view",
            "type": "function"
        },
        {
            "inputs": [],
            "name": "disableAccessCheck",
            "outputs": [],
            "stateMutability": "nonpayable",
            "type": "function"
        },
        {
            "inputs": [],
            "name": "enableAccessCheck",
            "outputs": [],
            "stateMutability": "nonpayable",
            "type": "function"
        },
        {
            "inputs": [
                {
                    "internalType": "address",
                    "name": "_user",
                    "type": "address"
                },
                {
                    "internalType": "bytes",
                    "name": "",
                    "type": "bytes"
                }
            ],
            "name": "hasAccess",
            "outputs": [
                {
                    "internalType": "bool",
                    "name": "",
                    "type": "bool"
                }
            ],
            "stateMutability": "view",
            "type": "function"
        },
        {
            "inputs": [],
            "name": "owner",
            "outputs": [
                {
                    "internalType": "address payable",
                    "name": "",
                    "type": "address"
                }
            ],
            "stateMutability": "view",
            "type": "function"
        },
        {
            "inputs": [
                {
                    "internalType": "address",
                    "name": "_user",
                    "type": "address"
                }
            ],
            "name": "removeAccess",
            "outputs": [],
            "stateMutability": "nonpayable",
            "type": "function"
        },
        {
            "inputs": [
                {
                    "internalType": "address",
                    "name": "_to",
                    "type": "address"
                }
            ],
            "name": "transferOwnership",
            "outputs": [],
            "stateMutability": "nonpayable",
            "type": "function"
        }
    ],
    "bytecode": "608060405234801561001057600080fd5b50600080546001600160a01b031916331790556001805460ff60a01b1916600160a01b1790556106f7806100456000396000f3fe608060405234801561001057600080fd5b50600436106100935760003560e01c80638823da6c116100665780638823da6c1461017c5780638da5cb5b146101a2578063a118f249146101c6578063dc7f0124146101ec578063f2fde38b146101f457610093565b80630a756983146100985780636b14daf8146100a257806379ba50971461016c5780638038e4a114610174575b600080fd5b6100a061021a565b005b610158600480360360408110156100b857600080fd5b6001600160a01b0382351691908101906040810160208201356401000000008111156100e357600080fd5b8201836020820111156100f557600080fd5b8035906020019184600183028401116401000000008311171561011757600080fd5b91908080601f0160208091040260200160405190810160405280939291908181526020018383808284376000920191909152509295506102bd945050505050565b604080519115158252519081900360200190f35b6100a06102f5565b6100a06103a4565b6100a06004803603602081101561019257600080fd5b50356001600160a01b031661044b565b6101aa61051d565b604080516001600160a01b039092168252519081900360200190f35b6100a0600480360360208110156101dc57600080fd5b50356001600160a01b031661052c565b61015861058d565b6100a06004803603602081101561020a57600080fd5b50356001600160a01b031661059d565b6000546001600160a01b03163314610272576040805162461bcd60e51b815260206004820152601660248201527527b7363c9031b0b63630b1363290313c9037bbb732b960511b604482015290519081900360640190fd5b600154600160a01b900460ff16156102bb576001805460ff60a01b191690556040517f3be8a977a014527b50ae38adda80b56911c267328965c98ddc385d248f53963890600090a15b565b6001600160a01b03821660009081526002602052604081205460ff16806102ee5750600154600160a01b900460ff16155b9392505050565b6001546001600160a01b0316331461034d576040805162461bcd60e51b815260206004820152601660248201527526bab9ba10313290383937b837b9b2b21037bbb732b960511b604482015290519081900360640190fd5b60008054336001600160a01b0319808316821784556001805490911690556040516001600160a01b0390921692909183917f8be0079c531659141344cd1fd0a4f28419497f9722a3daafe3b4186f6b6457e091a350565b6000546001600160a01b031633146103fc576040805162461bcd60e51b815260206004820152601660248201527527b7363c9031b0b63630b1363290313c9037bbb732b960511b604482015290519081900360640190fd5b600154600160a01b900460ff166102bb576001805460ff60a01b1916600160a01b1790556040517faebf329500988c6488a0074e5a0a9ff304561fc5c6fc877aeb1d59c8282c348090600090a1565b6000546001600160a01b031633146104a3576040805162461bcd60e51b815260206004820152601660248201527527b7363c9031b0b63630b1363290313c9037bbb732b960511b604482015290519081900360640190fd5b6001600160a01b03811660009081526002602052604090205460ff161561051a576001600160a01b038116600081815260026020908152604091829020805460ff19169055815192835290517f3d68a6fce901d20453d1a7aa06bf3950302a735948037deb182a8db66df2a0d19281900390910190a15b50565b6000546001600160a01b031681565b6000546001600160a01b03163314610584576040805162461bcd60e51b815260206004820152601660248201527527b7363c9031b0b63630b1363290313c9037bbb732b960511b604482015290519081900360640190fd5b61051a81610646565b600154600160a01b900460ff1681565b6000546001600160a01b031633146105f5576040805162461bcd60e51b815260206004820152601660248201527527b7363c9031b0b63630b1363290313c9037bbb732b960511b604482015290519081900360640190fd5b600180546001600160a01b0319166001600160a01b0383811691821790925560008054604051929316917fed8889f560326eb138920d842192f0eb3dd22b4f139c87a2c57538e05bae12789190a350565b6001600160a01b03811660009081526002602052604090205460ff1661051a576001600160a01b038116600081815260026020908152604091829020805460ff19166001179055815192835290517f87286ad1f399c8e82bf0c4ef4fcdc570ea2e1e92176e5c848b6413545b885db49281900390910190a15056fea2646970667358221220a20802e8795bf125b33b16fb758030a1b20f191dfcb6fcc74bb620bd94024d8564736f6c63430007060033",
    "sourcePath": "c:/Rintagi/chainlink-ocr-helper/contracts/flattened/AccessControlledOffchainAggregator.sol",
    "compiler": {
        "name": "solc",
        "version": "0.7.6+commit.7338295f"
    },
    "functionHashes": {
        "acceptOwnership()": "79ba5097",
        "addAccess(address)": "a118f249",
        "checkEnabled()": "dc7f0124",
        "disableAccessCheck()": "0a756983",
        "enableAccessCheck()": "8038e4a1",
        "hasAccess(address,bytes)": "6b14daf8",
        "owner()": "8da5cb5b",
        "removeAccess(address)": "8823da6c",
        "transferOwnership(address)": "f2fde38b"
    },
    "gasEstimates": {
        "creation": {
            "codeDepositCost": "356600",
            "executionCost": "42064",
            "totalCost": "398664"
        },
        "external": {
            "acceptOwnership()": "44244",
            "addAccess(address)": "24011",
            "checkEnabled()": "1093",
            "disableAccessCheck()": "23420",
            "enableAccessCheck()": "23494",
            "hasAccess(address,bytes)": "infinite",
            "owner()": "1059",
            "removeAccess(address)": "23936",
            "transferOwnership(address)": "24333"
        },
        "internal": {
            "addAccessInternal(address)": "infinite"
        }
    }
}